:1004FD001207621207791205CC12043B120742E56E
:10050D0018FB7A00752700851A28752900851B2A86
:10051D007D057C007F0212001E1207A612017530A8
:10052D008EF7E518FB7A00752700851A28752900C6
:0E053D00851B2A7D057C007F0212001E80DBDC
:03000B0002054BA0
:10054B00C0E0C0F0C083C082C0D075D000C000C076
:10055B0001C002C003C004C005C006C007758A00F5
:10056B00758CCAC28C1204A4D007D006D005D00457
:10057B00D003D002D001D000D0D0D082D083D0F025
:03058B00D0E0328B
:03001B00020637A3
:10063700C0E0C0D0758B00758DDC0518E518B46473
:1006470017751800051AE51AB43C0D751A00051B35
:0D065700E51BB46403751B00D0D0D0E03269
:10079000C2A6D2A5D2A700000000A2879201C2A7DC
:0507A000A201E433FF9B
:0107A5002231
:10070000AE07120790EF640160F8C2A7C2A6C2A5A7
:1007100000008E8000000000D2A700000000C2A7E9
:0107200022B6
:1006DC00AE07120790EF640160F8C2A7D2A6C2A5BC
:1006EC008E8000000000D2A77F011207B900000025
:0406FC0000C2A7226F
:1005CC007F0F1207B97F381207007F051207B97F1A
:1005DC00011207007F051207B97F061207007F057D
:1005EC001207B97F0C1207007F051207B97F801222
:0705FC0007007F050207B9AB
:1006B700EE7016EF24FE600A04700EED1D700A1C22
:1006C7008007ED243FFDE43CFCED4480FF1207006A
:0506D700AF030206DC88
:0E058E008E238F248C258D268B278A28892981
:10059C00E4F52AAB27AA28A929852A82758300129B
:1005AC00027CFF601AE52A7C002526FDEC3525FC33
:0F05BC00EFFB7A00AF24AE231206B7052A80D4D6
:0105CB00220D
:0F07B900EF600C007E027DC7DDFEDEFC1F80F1CD
:0107C800220E
:100762005389F0438901E4F58A758CCAC28DC28C23
:07077200D2A9D2AFD2B922D7
:1007790053890F438910E4F58B758DDCC28FC28EC6
:07078900D2ABD2AFC2BB22CC
:10068F004E4F2E005245434F5244006D2020732091
:10069F00206D730053544F5057415443480030312D
:0806AF00323334353637383997
:10066400011C01011901010801011800011A00010E
:100674001B00050900000000000513000000000035
:07068400050E00000000005C
:10043B007BFF7A0679A37D047C007F017E00120589
:10044B008EE4F5217FC81207B90521E521C3940875
:10045B0040F2E4F521E4F522C374099521FFE5226E
:10046B00C39F501CE5222404FDE433FCE5229006D7
:10047B00A393FB7A007F017E001206B7052280D87A
:10048B007F321207B97F011207007F801207000528
:08049B0021E521C3940940BDD5
:0104A3002236
:100742007BFF7A06799A7D057C007F017E00120587
:100752008E7B317A007D107C007F027E000206B71C
:10001E008F228C238D248A258B267E00C006C00756
:10002E00E5242407FDE43523FCC004C005AE25AF4E
:10003E00267C007D0A1202A974AD2DF58274063C51
:10004E00F583E493FB7A00D005D004D007D00612D6
:10005E0006B7AE25AF267C007D0A1202A974AD2F1D
:10006E00F58274063EF583E493FB7A00AF227E00A0
:10007E00E5242406FDE43523FC1206B7AF227E00EC
:10008E00E5242405FDE43523FC7B3A7A001206B7FD
:10009E00AF227E00C006C007E5242404FDE435230C
:1000AE00FCC004C005AE27AF287C007D0A1202A951
:1000BE0074AD2DF58274063CF583E493FB7A00D083
:1000CE0005D004D007D0061206B7AE27AF287C00A5
:1000DE007D0A1202A974AD2FF58274063EF583E4F3
:1000EE0093FB7A00AF227E00E5242403FDE4352342
:1000FE00FC1206B7AF227E00E5242402FDE4352370
:10010E00FC7B3A7A001206B7AF227E00C006C0070B
:10011E00E5242401FDE43523FCC004C005AE29AF5F
:10012E002A7C007D0A1202A974AD2DF58274063C5C
:10013E00F583E493FB7A00D005D004D007D00612E5
:10014E0006B7AE29AF2A7C007D0A1202A974AD2F24
:10015E00F58274063EF583E493FB7A00AF227E00AF
:07016E00AD24AC230206B72B
:1003C0007BFF7A0679937D067C007F017E00120513
:1003D0008E7BFF7A06798F7D017C007F027E001282
:1003E000058E7B327A007D107C007F027E00120633
:1003F000B7AF08E50814F521E51CB40104E4FFF5E6
:1004000021EF2430FBE433FA7D047C007F027E0080
:100410001206B774092521F8E6FB7A00741325212A
:10042000F8E6752700F528740E2521F8E6752900F1
:0B043000F52A7D067C007F0202001E02
:100603007F011207007F80120700E51924FE602096
:10061300047020120742E518FB7A00752700851A3B
:1006230028752900851B2A7D057C007F0202001E98
:040633001203C022CC
:10072100E4FFE51C14FEEFC39E501574092FF8E495
:10073100F674132FF8E4F6740E2FF8E4F60F80E246
:010741002295
:1007A60075900FE590B40F02C200E590640F6002E9
:0307B600D28C22C0
:10017500E51D24F7B40800400302027890018F754D
:10018500F003A4C58325F0C5837302021502021F7F
:100195000201D60202780201A70201BB020248024F
:1001A5000261308E030202780519E519D3940240E5
:1001B500177519028012308E030202781519E51998
:1001C500C394015003751901120603750801020253
:1001D50078308E03020278E4F518F51AF51BE51858
:1001E500FB7A00752700851A28752900851B2A7D4D
:1001F500057C007F0212001E120721751C01E519FE
:100205006402706F7F011207007F80120700806013
:10021500E5196401705DB28E8059E519640170536A
:10022500308E50E51CD3940550497408251CF8A65A
:10023500187412251CF8A61A740D251CF8A61B05A2
:100245001C8030E5196402702A208E270508E51CFC
:1002550014FFE508C39F40028F088014E519B40216
:1002650012208E0F1508E508C39401500375080187
:070275001203C0E4F51D2295
:03068B00011D004E
:1004A400E590640F605220004FAF90EF24F5601088
:1004B40024FE601114601324077012751D01800D51
:1004C400751D028008751D038003751D047590F069
:1004D400AF90EF2450601124E0601124F0601124E7
:1004E400707013851D1D800E7404800674088002CC
:0904F400740C251DF51DD2002237
:03000000020334C4
:0C033400787FE4F6D8FD75812A02037B77
:10027C00BB010CE58229F582E5833AF583E0225037
:10028C0006E92582F8E622BBFE06E92582F8E22281
:0D029C00E58229F582E5833AF583E493229B
:1002A900C2D5EC30E709B2D5E4C39DFDE49CFCEE70
:1002B90030E715B2D5E4C39FFFE49EFE1202DFC307
:1002C900E49DFDE49CFC80031202DF30D507C3E402
:0602D9009FFFE49EFE22DF
:100340000204FDE493A3F8E493A34003F68001F2D2
:1003500008DFF48029E493A3F85407240CC8C333BE
:10036000C4540F4420C8834004F456800146F6DF8D
:10037000E4800B0102040810204080900664E47EB3
:10038000019360BCA3FF543F30E509541FFEE49382
:10039000A360010ECF54C025E060A840B8E493A349
:1003A000FAE493A3F8E493A3C8C582C8CAC583CA74
:1003B000F0A3C8C582C8CAC583CADFE9DEE780BE2C
:01068E00006B
:1002DF00BC000BBE0029EF8DF084FFADF022E4CC03
:1002EF00F875F008EF2FFFEE33FEEC33FCEE9DECCC
:1002FF00984005FCEE9DFE0FD5F0E9E4CEFD22ED12
:10030F00F8F5F0EE8420D21CFEADF075F008EF2F5B
:10031F00FFED33FD4007985006D5F0F222C398FD4C
:05032F000FD5F0EA22E9
:00000001FF
