:06011D00C2907F067E0087
:10012300EF1FAC0670011E4C600A7D127CEBDCFEF7
:04013300DDFC80EC83
:0101370022A5
:100151005389F0438901758A9C758CFFC28DD28CBD
:07016100D2A9D2AFD2B922EE
:1001000075985043878053890F438920758DFA7500
:0D0110008BFAC2ABD28ED2ACD2AFC2BC22F1
:080003008F993099FDC299228A
:10002600E4F50DF50ED290C2A0F50B750815750C0A
:1000360001F509F50A120151120100E599C394E789
:100046004023E50CB4011E12011DD2907F4B7E00A9
:10005600120123E4F50DC2A0F50BE599241AF50863
:10006600E4F50CD28CE50864156016E50DB40111B3
:100076007F287E0012012312011DD290E4F509F5B6
:100086000AE508B415B5E50EB401B07F647E00122A
:090096000123E4F50EC28C80A2E6
:03000B0002009F51
:10009F00C0E0C0D0758A9C758CFF050B050AE50A78
:1000AF0070020509E50BD395085004D2A08002C257
:1000BF00A0E50BB4A823750B00E5086415600E05C9
:1000CF000DE50DC394024011750D02800C050EE570
:1000DF000EC394024003750E02E50AB4300EE50913
:1000EF00B47509750900750A00750815D0D0D0E0F0
:0100FF0032CE
:030023000201389F
:10013800C0D075D000C00730980AAF99120003C22A
:0901480098750C01D007D0D032EB
:0300000002000EED
:0C000E00787FE4F6D8FD75810E02002614
:00000001FF
