:020000040800F2
:10000000D005002001010008090100080B010008CB
:100010000D0100080F010008110100080000000098
:1000200000000000000000000000000013010008B4
:100030001501000800000000170100081901000860
:100040001B0100081B0100081B0100081B01000820
:100050001B0100081B0100081B0100081B01000810
:100060001B0100081B0100081B0100081B01000800
:100070001B0100081B0100081B0100081B010008F0
:100080001B0100081B0100081B0100081B010008E0
:100090001B0100081B0100081B010008550A00088D
:1000A0001B0100081B0100081B0100081B010008C0
:1000B0001B0100081B010008000000001B010008D4
:1000C0001B01000800000000000000001B010008E8
:1000D000000000007D1300081B0100080000000064
:1000E0001B0100081B0100081B010008DFF80CD0F1
:1000F00000F03CFC00480047F1330008D005002028
:100100000648804706480047FEE7FEE7FEE7FEE7B1
:10011000FEE7FEE7FEE7FEE7FEE7FEE72D13000839
:10012000ED0000082DE9F0410024061B254671F181
:10013000000605DA01240027D0EB070067EB010178
:10014000161E73F1000605DA0027D2EB070201251F
:1001500067EB030300F00DFB86460E4617469C46F0
:10016000AC4204D00025D0EB050E65EB010624B1AE
:100170000020D2EB000760EB030C704631463A4694
:100180006346BDE8F081D2B201E000F8012B491EC0
:10019000FBD270470022F6E710B513460A46044624
:1001A0001946FFF7F0FF204610BD30B50446002089
:1001B000034600E05B1C934203D2E05CCD5C401B35
:1001C000F8D030BDF0B480EA0102D40F4200B2EBA7
:1001D000410F02D20246084611464A0042D0C30DE2
:1001E000DDB2C1F3C752AD1A202D35DAC1F31601C5
:1001F00041F4000204B15242C5F1200602FA06F1B0
:100200002A411044B3EBD05F23D0C4B1012DA0EB41
:10021000C35009DCF0BC4FF0004202EAC352DBB22B
:1002200000F5000000F000BB400000F1807000EB22
:10023000C350A0F1807040EAD170490009E049083C
:1002400041EAC071A0EBC35000F50000400800EB8C
:10025000C350F0BC00F0DFBA6142012202EB410161
:10026000001BF6E7F0BC704781F00041AAE780F080
:100270000040A7E780EA010210B502F00043400009
:1002800022D04A001FD0010E01EB1261C0F35600CC
:10029000C2F3560240F4000042F40002A0FB022028
:1002A00000047F39140400D0401C50EA124001D4ED
:1002B0004000491EC2B20C0604EBD010401C40089E
:1002C000802A02D003E0002010BD20F001000029A8
:1002D00000DA0020184310BD30B480EA010202F0B9
:1002E000004530F0004221F0004013D090B1C30D22
:1002F000D40DC2F31601C0F31600E41A41F4000154
:1003000040F400027D34914201D3641C00E04900B6
:10031000002C02DA30BC002070474FF400000023AC
:10032000914201D3891A034340084FEA4101F7D1B2
:1003300051B1914202D14FF0004105E002D24FF09D
:10034000010101E06FF0010103EBC450284430BC0F
:1003500000F061BA420005D0C0F3C7525242914248
:1003600001DC0020704700EBC15070472DE9FE4FC3
:10037000804681EA0300C00F0C46009021F0004146
:1003800023F00045B8EB0200A94105D240462146C2
:1003900090461C460B46024623F00040104347D0CF
:1003A000270DC7F30A00C3F30A510290401A0190C7
:1003B00040286BDAC3F3130040F4801B0098924688
:1003C00020B10023D2EB030A63EB0B0B01985946D3
:1003D000C0F14002504600F0FDF906460D46504679
:1003E0005946019A00F005FA10EB0800614100241B
:1003F00087EA115284EAE7731A4340D0009A62B345
:10040000019A012A4FEA075215DC001B61EB020139
:100410004FF0004202EA0752CDE90042001C41F5CC
:10042000801132462B4600F03CFA03B0BDE8F08F55
:1004300040462146F9E7001B61EB0201001C41F533
:10044000801300185B412018A2F5001747EB030149
:1004500040EAD570B6196D4111E06D084FEA3606D5
:1004600045EAC0754FEA0752001B61EB0201001C10
:1004700041F5801149084FEA3000001951413246D8
:100480002B4603B0BDE8F04F00F0FCB90098012204
:1004900040000023D0EB020263EBE073009821469A
:1004A0004FEAE074B8EB000061EB0401E9E783F088
:1004B00000435BE781F0004158E72DE9FE4F81EAF8
:1004C000030404F0004421F0004100944FF0000BBD
:1004D00023F0004350EA01045ED052EA03045BD0EB
:1004E000C3F30A54C1F30A552C44A4F2F334019423
:1004F000A0FB0254C1F3130141F48011C3F31303B1
:1005000043F4801301FB024400FB034E840A970A64
:1005100044EA815447EA8357A4FB076802958D0A91
:1005200005FB07854FEA932C04FB0C542705029D1D
:100530004FEA065847EA1637B5EB08056EEB070C8D
:10054000870E920E47EA811742EA8312A7FB020147
:10055000B6EB0B0164EB00042B0D43EA0C335E1881
:1005600044EB1C50DA465146E7FB0201C5F3130485
:100570004FEA0B3343EA14534FEA0432019C43EA37
:100580000603A4F10C040294009CCDE900B400F031
:1005900088F903B0BDE8F08F00200146F9E72DE9A6
:1005A000F04D81EA030404F0004B21F000451446AD
:1005B0004FF0000A23F0004150EA050220D054EA2F
:1005C00001021DD0C5F30A570246C5F31303C1F358
:1005D0001300C1F30A5640F4801543F48013A7EBCF
:1005E0000608101BD64608F2FD3873EB050002D34F
:1005F00008F1010801E092185B41B8F1000F03DA3D
:1006000000200146BDE8F08D00204FF48011064621
:1006100084460EE0171B73EB050705D3121B63EB33
:10062000050306434CEA010C49084FEA30009218D2
:100630005B4150EA0107EDD152EA030012D082EA91
:10064000040083EA0501084305D0101BAB4106D224
:100650000122002306E000224FF0004302E06FF089
:10066000010253101AEB06004CEB085110EB0A0084
:1006700041EB0B01BDE8F04D00F004B9C10F80EA79
:10068000E0700844CA079623002100F0CDB89623F5
:100690000022114600F0C8B80EB5C10F80EAE07024
:1006A0000844CA07002140F233438DE80E000A4691
:1006B0000B4600F0F6F803B000BD00F0004220F059
:1006C0000040C10DC0F3160040F400007F2901DA9C
:1006D00000207047962903DCC1F19601C84001E073
:1006E00096398840002AF4D04042704720F00040FC
:1006F000C10DC0F3160040F400007F2901DA00208C
:100700007047962903DCC1F19601C84070479639BD
:100710008840704700F0004230F000400AD0C10D20
:1007200001F56071C0F3160042EA0151C2084007AA
:100730001143704700200146704701F0004330B478
:1007400021F0004150EA010206D00A0DA2F56072C4
:10075000C1F31301002A02DC30BC00207047440FB3
:1007600044EAC104C100E01830BC00EBC25000F004
:1007700052B82DE9F05F0546002092469B46884618
:100780000646814640241BE028464146474622460D
:1007900000F0FEF853465A46C01A914110D3114654
:1007A0001846224600F016F82D1A67EB01084F464E
:1007B00022460120002100F00DF817EB00094E4100
:1007C000201EA4F10104DFDC484631462A46434698
:1007D000BDE8F09F202A04DB203A00FA02F1002055
:1007E00070479140C2F1200320FA03F3194390406F
:1007F0007047202A06DBCB17203A41FA02F043EA81
:10080000E07306E041FA02F3D040C2F120029140C9
:100810000843194670470029A8BF7047401C49008B
:1008200008BF20F00100704710B4B0FA80FC00FA55
:100830000CF050EA010404BF10BC704749B1CCF180
:10084000200421FA04F411FA0CF118BF012121430C
:100850000843A3EB0C01CB1D4FEA00614FEA1020C7
:1008600042BF002010BC704700EBC3501044002969
:10087000A4BF10BC7047401C490008BF20F0010015
:1008800010BC704710B5141E73F1000408DA401C48
:1008900041F1000192185B411A4301D120F001009F
:1008A00010BD2DE9F04D92469B4611B1B1FA81F28F
:1008B00002E0B0FA80F220329046FFF78BFF044648
:1008C0000F4640EA0A0041EA0B0153465A460843E4
:1008D00013D0114653EA010019D0C8F14002504626
:1008E00000F056F805460E46504659464246FFF778
:1008F00071FF084305D0012004E020463946BDE8D9
:10090000F08D0020054346EAE0762C4337430A98F1
:100910006305E40AA0EB08000022FD0A44EA4754FC
:100920000A3002D500200146E9E7010510196941A6
:10093000DDE9084500196941BDE8F04DA2E770B551
:1009400021F0004303430CD0C1F30A550024D5EB3A
:10095000040564EB0403D617AD1AB34102DB002093
:10096000014670BD201841EB025170BD064C074D89
:1009700006E0E06840F0010394E80700984710346F
:10098000AC42F6D3FFF7B6FBD0530008F053000893
:10099000202A04DB203A21FA02F00021704721FAD4
:1009A00002F3D040C2F1200291400843194670473B
:1009B0002DE9F04D00231A461B1A8A4103DB002063
:1009C0000146BDE8F08DC1F30A52C1F3130141F4B1
:1009D00080154FF0000BD10702D100186D41521E57
:1009E0000027044640F2FF11384601EB620A3E46FA
:1009F0008046024600204FF48011FFF7C9FFC2195C
:100A00007141BB1846EB0100B4EB030C75EB000C15
:100A100004D3E41A65EB000517460E46241908F1C5
:100A200001006D4180463428E3DDF91946EB0600EC
:100A3000091BA84103D24FF0FF32134601E0002208
:100A400013461BEB070046EB0A51BDE8F04DFFF7DC
:100A500019BF000010B52021084800F0B3F80028A5
:100A60000BD1202000F00EF802F0A4FB044ABDE8F0
:100A70001040111F081F02F0A3BD10BD000C014063
:100A80007000002001490860704700001404014014
:100A900030B51A4A8379016853B313688B431360E6
:100AA000111D0B680468A3430B60017911440B68A6
:100AB000046823430B60114B083319680468A14391
:100AC00019601C1D21680568A9432160417910291E
:100AD00005D011440A68006802430A6030BD1968F5
:100AE000026811431960216800680143216030BD2C
:100AF0000079104402688A43026030BD000401405E
:100B000010B58A0721F003040649120F21440F2370
:100B10008C6893409C438C608B68904003438B604F
:100B200010BD000000000140F0B5CC78002204F0B8
:100B30000F03E40601D58C7823430C784FF00F0C9B
:100B400014F0FF0F4FF0010E1BD005680E880EFA4F
:100B500002F42640A64210D196000CFA06F725EAC8
:100B6000070703FA06F5CE783D43282E02D0482E1B
:100B700002D002E0446100E00461521C082AE5D37F
:100B800005600A88FF2A1CD94468002202F1080681
:100B90000EFA06F50E882E40AE420ED196000CFAE3
:100BA00006F7BC4303FA06F7CE783C43282E00D163
:100BB0004561CE78482E00D10561521C082AE5D344
:100BC0004460F0BD0246002092680A4200D0012035
:100BD000704701617047000038B50121102000F016
:100BE000EFFA4FF40054ADF8004010208DF80300E8
:100BF0000320064D8DF8020069462846FFF794FF52
:100C000021462846FFF7E5FF38BD000000100140EF
:100C10001FB50121092000F0D3FA2024ADF80C40C3
:100C200048208DF80F0003208DF80E0003A912480C
:100C3000FFF77AFF05210120FFF762FF00208DF802
:100C400004000C2000948DF8050001248DF8064066
:100C50006846FFF71DFF4FF4A06000F0A7FA1720C9
:100C60008DF808008DF809408DF80A408DF80B408A
:100C700002A800F069FA1FBD000C01407CB51446C3
:100C80000D4606466B4606223B21682000F0A6F979
:100C900000280BD1BDF8001049BA3180BDF8021010
:100CA00049BA2980BDF8041049BA21807CBD7CB5C1
:100CB00014460D4606466B4606224321682000F086
:100CC0008DF900280BD1BDF8001049BA3180BDF86C
:100CD000021049BA2980BDF8041049BA21807CBDB0
:100CE00070B50D4C0025C4F898510C48016821F0EE
:100CF00070410160016841F040510160C4F89C51AD
:100D0000022004F5CC7401F099FA01202060022041
:100D100001F094FA256070BD00802142000C014072
:100D200008B50121082000F04BFAC020ADF8000002
:100D300010208DF8030003208DF802006946024858
:100D4000FFF7F2FE08BD0000000C014070B50D4C2D
:100D50000026C4F898610C48016821F070410160D8
:100D6000016841F0405101600125C4F89C51022006
:100D700004F5CC7401F062FA2560022001F05EFAFD
:100D8000266070BD00802142000C01402DE9F04733
:100D9000814617480024016821F070410160016814
:100DA00041F000410160134E254627464FF00108EF
:100DB000C6F89871022001F041FAC6F898816006E1
:100DC000040ED6F81C0108B1641CE4B2022001F044
:100DD00035FA6D1CEDB2082DEAD3B9F1000F04D03D
:100DE000FFF77EFF2046BDE8F087FFF7AFFFF9E78A
:100DF000000C0140008021422DE9F04105461248D7
:100E0000016821F070410160016841F040510160CA
:100E10000E4E0027C6F898713C464FF00108E809CD
:100E2000C6F89C016806050EC6F89881022001F0FC
:100E300005FAC6F89871022001F000FA641CE4B2C9
:100E4000082CECD3BDE8F081000C01400080214269
:100E500070B50D48016821F070410160016841F0F2
:100E600040510160094C0120C4F89C01C4F898016C
:100E7000022004F5CC7401F0E1F900256560022040
:100E800001F0DCF9256070BD000C014000802142BA
:100E90000E4810B5016821F070410160016841F011
:100EA000405101600A4C0020C4F89801C4F89C012C
:100EB000022004F5CC7401F0C1F9012020606060CB
:100EC000BDE81040022001F0B9B90000000C01405B
:100ED0000080214270B513480024016821F0704160
:100EE0000160016841F0004101600F4D0126C5F825
:100EF0009C61022001F0A2F9C5F89861022001F07E
:100F00009DF907E0641CE4B2FA2C03D9FFF7C0FF97
:100F1000012070BDD5F81C010028F3D1C5F8980157
:100F200070BD0000000C01400080214210B5FFF7A9
:100F3000F7FE80216B2000F0BFF8642001F064F917
:100F400000216B2000F0B8F8032000F081F80120A8
:100F500000F079F8642000F098F80121382000F0C2
:100F6000ABF800216A2000F0A7F80021232000F050
:100F7000A3F88021372000F09FF8752000F011F8C9
:100F8000682801D0012010BD09216B2000F094F8E1
:100F900000216C2000F090F8642000F076F800202A
:100FA00010BD10B50446FFF753FFD020FFF724FF14
:100FB000FFF790FF2046FFF71FFFFFF78BFFFFF7BC
:100FC00047FFD120FFF718FFFFF784FF0020FFF74E
:100FD000DDFE0446FFF75CFF204610BD2DE9F04121
:100FE0001C4615460F460646FFF732FF7006000EF8
:100FF000FFF702FFFFF76EFF20B1FFF749FF012067
:10100000BDE8F0813846FFF7F7FEFFF763FFFFF713
:101010001FFF012000EB4600C0B2FFF7EDFEFFF717
:1010200059FF08E0012D0CD00120FFF7AFFE6D1E27
:1010300004F8010BEDB2002DF4D1FFF729FF0020D9
:10104000DEE70020F1E7C006010E1C2000F034B8F6
:10105000C006010E1B2000F02FB8BC2801D30121CF
:1010600010E0622801D302210CE02A2801D30321D9
:1010700008E0142801D3042104E00A2801D3052143
:1010800000E006211A2000F017B810B504464FF40E
:101090007A70844201D9044602E0042C00D2042470
:1010A000B0FBF4F0401EC1B2192000F005F8600852
:1010B000BDE81040FFF7D1BF70B50C460546FFF7FD
:1010C000C7FED020FFF798FEFFF704FF50B928466F
:1010D000FFF792FEFFF7FEFE2046FFF78DFEFFF7BB
:1010E000F9FE18B1FFF7D4FE012070BDFFF7D0FE66
:1010F000002070BD2DE9F0411D4616460C460746FE
:10110000FFF7A6FE7806000EFFF776FEFFF7E2FE79
:1011100060B92046FFF770FEFFF7DCFE00240CE00C
:10112000285DFFF769FEFFF7D5FE20B1FFF7B0FE9F
:101130000120BDE8F081641CE4B2B442F0D3FFF7B3
:10114000A7FE0020F5E7000030B50F23C278017834
:101150000125F2B1144A126801F1E02102F4E062C3
:10116000C2F5E062120AC2F10404D3404278A24000
:1011700084781C401443220181F80024007800F098
:101180001F018D404009800000F1E020C0F80051AF
:1011900030BD01F01F0085404809800000F1E020CB
:1011A000C0F8805130BD00000CED00E0024908435A
:1011B00002490860704700000000FA050CED00E0ED
:1011C000044A0029916901D0014300E08143916103
:1011D000704700000010024030B5204A5168204B93
:1011E00011F00C0103D0042901D0082901D00360BB
:1011F00012E05168536801F470114FF0020413F4C7
:10120000803F04EB914102D053689B0301D5154BFD
:1012100000E0134B5943016051680F2303EA111199
:10122000114B5C5C0168E14041605468072505EAA8
:1012300014241C5D21FA04F48460546805EAD42463
:101240001B5DD940C1605268032303EA9232064B0A
:101250001B1F9A5CB1FBF2F1016130BD001002402E
:1012600000127A0000093D00AD0000200CB50022FC
:10127000264800920192016841F4803101604FF4E8
:10128000A063016801F4003101910099491C0091AB
:10129000019911B900999942F3D10168890333D5B5
:1012A000012101911A490A6842F010020A600A6895
:1012B00022F003020A600A6842F002020A604168F2
:1012C000416041684160416841F48061416041682A
:1012D00021F47C114160416841F4E81141600168EA
:1012E00041F08071016001688901FCD5416821F0FD
:1012F00003014160416841F0020141604168C1F36E
:1013000081010229FAD10CBD01920CBD00100240EE
:10131000002002404FF0E0210428086903D020F0AB
:1013200004000861704740F00400FAE70F4810B568
:10133000016841F00101016041680D4A11404160BE
:1013400001680C4A11400160016821F480210160AC
:10135000416821F4FE0141604FF41F018160FFF7F5
:1013600085FF05494FF00060086010BD0010024085
:101370000000FFF8FFFFF6FE08ED00E070B5154C29
:1013800040F22551204600F035F800280ED02046C6
:1013900000F0BEF8104AC1B21088030406D4440419
:1013A0004FF0000306D50A2901D0138070BD40F428
:1013B00000400DE00D2909D0C0F30D04074D401C7D
:1013C00080B229551080C728EFD870BD40F4804006
:1013D000108070BD0038014004000020D8000020BB
:1013E0000029818902D041F4005101E021F400512B
:1013F0008181704770B501F01F0501260024C1F3FB
:10140000421306FA05F2012B0FD0022B0FD0838A6C
:101410004FEA11210088134206FA01F600EA06009D
:1014200001D000B10124204670BD8389F0E7038A12
:10143000EEE710B5C1F3421301F01F040121A140F2
:10144000012B07D0022B07D01430002A026805D0E8
:101450000A4304E00C30F8E71030F6E78A430260F4
:1014600010BD000030B50446008A85B00D464CF62C
:10147000FF710840E98801432182A0894EF6F311EB
:101480000840A9882A8911436A8902431143A1812E
:10149000A08A4FF6FF410840A9890143A18268460E
:1014A000FFF79AFE1948844201D1039800E00298A0
:1014B000A189090400EBC00101EB0010296801D5E6
:1014C000490000E08900B0FBF1F06422B0FBF2F1CA
:1014D00009010B096FF018056B4300EB8300A3892A
:1014E0001D044FF0320306D503EBC000B0FBF2F051
:1014F00000F0070005E003EB0010B0FBF2F000F095
:101500000F000843208105B030BD000000380140C5
:101510008088C0F3080070470FB4054B10B503A9CD
:10152000044A029800F09AF810BC5DF814FB000021
:10153000A92B000808000020490050EAC12018BF6C
:1015400004204A0D18BF40F0010040F2FF72B2EBD8
:10155000515F08BF40F00200012808BF0520704716
:101560002DE9F0414F1E00EBC7010446D1E900010F
:1015700015461E4637F006020DD02A463346FEF7C2
:101580009CFF7F1E04EBC703D3E90023FEF7EEFEAA
:1015900037F00602F1D1022F25D0042F13D0062FE9
:1015A00018BFBDE8F0812A463346FEF786FFD4E92E
:1015B0000A23FEF7DBFE2A463346FEF77EFFD4E918
:1015C0000823FEF7D3FE2A463346FEF776FFD4E91A
:1015D0000623FEF7CBFE2A463346FEF76EFFD4E91C
:1015E0000423FEF7C3FE2A463346FEF766FFD4E91E
:1015F0000223FEF7BBFE2A463346FEF75EFFD4E920
:101600000023BDE8F041FEF7B1BE0122FFF797B914
:10161000FEF7ACBE0022134610461146FEF7BFBFD0
:10162000024A00201107FFF78AB9000001FDFFFF01
:1016300002E008C8121F08C1002AFAD1704770479B
:10164000002001E001C1121F002AFBD170470000F9
:101650000149086070470000D40000202DE9FF4FC9
:101660008DB00F460546002606E025280BD0DDE9A3
:101670000F1290476D1C761C28780028F5D111B008
:101680003046BDE8F08F0024A246A1460122EC4975
:1016900000E0044315F8013F203B02FA03F0084242
:1016A000F7D128782A2810D06FF02F022878A0F1DF
:1016B0003001092914D80AEB8A0102EB410144F0F8
:1016C000020400EB010A6D1CF0E701CF5FEA000A9B
:1016D00003D544F40054CAF1000A44F002046D1C1E
:1016E00028782E2817D115F8010F44F004042A2871
:1016F0000ED06FF02F022878A0F1300109290AD806
:1017000009EB890102EB410100EB01096D1CF2E7D5
:1017100057F8049B6D1C28786C280FD006DC4C28E9
:1017200017D068280DD06A2814D104E0742810D08E
:101730007A280FD10DE044F400140AE044F4801438
:1017400001E044F440146978814202D104F5801428
:101750006D1C6D1C2A786E2A1FD00CDC632A31D0D8
:1017600004DC002A8BD0582A11D1A3E0642A68D067
:10177000692A0CD165E0732A2ED004DC6F2A73D05D
:10178000702A04D19BE0752A6FD0782A6ED010465B
:10179000DDE90F129047761C50E1C4F30250022895
:1017A00006D0032809D0042801CF09D0066045E1FE
:1017B00001CFF117C0E9006140E101CF06803DE1B2
:1017C00006703BE117F8040B8DF8000000208DF83F
:1017D0000100EB46012003E057F804BB4FF0FF3057
:1017E00061074FF0000102D40DE008F101018846C5
:1017F00049450FDA8045F8DB1BF808100029F4D1C1
:1018000008E008F1010188468142FADB1BF8081064
:101810000029F6D1DDE90F23AAEB08008146214615
:1018200000F036F9304400EB080604E0DDE90F1261
:101830001BF8010B9047B8F10108F7D22146484642
:10184000F7E00A21C4F302534FF0000B0891022B7A
:1018500004D001CFC117032B09D00AE0FF1D27F0E8
:101860000707F7E8020108E032E01FE020E000B2DD
:10187000C117042B01D140B2C117031E71F100033F
:1018800007DA4FF0000CD0EB0C006CEB01012D23BC
:1018900002E0230504D52B238DF82430012303E037
:1018A000E30701D02023F7E7984658E00A2110E02B
:1018B00010210EE010204FF0000B08900CE01021DA
:1018C0004FF0000B44F004044FF00809089103E0C6
:1018D00008214FF0000B0891C4F30253022B04D0EF
:1018E00001CF0021032B06D006E0FF1D27F00707DC
:1018F000F7E8020103E080B2042B00D1C0B24FF040
:10190000000823072BD5702A07D0DDF820C08CF003
:10191000100C5CEA0B0C05D00EE040238DF824304F
:10192000012308E050EA010306D030238DF824306B
:101930008DF8252002239846DDF820C08CF0080C95
:101940005CEA0B0C0BD150EA010301D1630706D509
:1019500030238DF824304FF00108A9F10109582AED
:1019600004D038A20B9208AA0A920BE03AA2F9E737
:101970005B46089AFEF7FDFE0B9B9B5C0A9A521E83
:101980000A92137050EA0102F2D10A98ADEB0000FE
:1019900000F1200B600702D524F4803401E04FF001
:1019A0000109D94502DDA9EB0B0000E0002000EBA6
:1019B0000B0141440890AAEB010AE00306D4DDE9DB
:1019C0000F232146504600F063F806444FF000090B
:1019D00008E009A911F80900DDE90F12904709F1A3
:1019E0000109761CC145F4DBE0030CD5DDE90F23CA
:1019F0002146504600F04CF8064404E0DDE90F12A1
:101A000030209047761C0899481E08900029F5DC84
:101A100008E00A980A990078491C0A91DDE90F123A
:101A20009047761CBBF10001ABF1010BF1DC2146C4
:101A30005046DDE90F2300F019F806446D1C1BE643
:101A40000928010030313233343536373839616294
:101A50006364656600000000303132333435363758
:101A60003839414243444546000000002DE9F04129
:101A7000044600251E461746880404D405E039466E
:101A80002020B0476D1C641EF9D52846BDE8F081C2
:101A90002DE9F041044600251E469046C80301D5B5
:101AA000302700E02027880404D505E04146384669
:101AB000B0476D1C641EF9D52846BDE8F0810000D2
:101AC0002DE9F041E4B000246E4601F079F846F8C3
:101AD00024000A2000F098FB641C642CF5DB164DF2
:101AE00000273C46EF6156F82410E869FEF76AFBD0
:101AF000641CE861642CF6DBDFF840804146FEF7A9
:101B0000EBFBC5E9070704460027214656F82700E6
:101B1000FEF7AAFB0146FEF7ADFB296AFEF752FB72
:101B20007F1C2862642FF0DB4146FEF7D5FB28625C
:101B300064B0BDE8F08100000C0000200000C84245
:101B40002DE9FE4F80460F460025684601F05CF8FF
:101B500000246FF00F0AE946012658F8240057F8D0
:101B60002410401A00D54042FEF788FD5146FEF78A
:101B7000F1FB59F8241011F0FF4F0BD0FEF7ACFB2E
:101B80004FF07E51FEF770FB094920F0004088427B
:101B900005DC07E0074908440749884202D306FAF2
:101BA00004F00543641C032CD7DB2846BDE8FE8FF8
:101BB000295C0F3E666666C19A99D9002DE9F04D01
:101BC0008D4F21F0004A86B005460C46BA452ADB07
:101BD000AAEB070028430AD08848824501DC1AD1C5
:101BE000CDB106B02846BDE8F04DFFF70EBD844AE2
:101BF000844B2846FEF761FC07460E46824A834B1B
:101C000028462146FEF759FC06B03A463346BDE861
:101C1000F04DFEF7ABBB0120FFF71AFD06B0BDE8A3
:101C2000F04DFFF7F7BC7A48824542DABAF1795FA6
:101C30000BDA2846FFF780FC042808BFFFF7F0FC0A
:101C4000284606B02146BDE8F08D2A460B461046D0
:101C5000FEF733FC834602466E480E460B460621CD
:101C60007844FFF77DFC5A463346FEF726FC804653
:101C700069488A465A46334604217844FFF770FC87
:101C80005A463346FEF719FC00223B46FEF76EFB30
:101C900002460B4640465146FEF781FC2A46234643
:101CA000FEF70BFC06B02A462346BDE8F04DFEF7D2
:101CB0005DBB284624F0004100223D463B46FEF72E
:101CC000F9FB4FF0FF32FEF73AFE06460246534854
:101CD0000F460B4606217844FFF742FC32463B464E
:101CE000FEF7EBFBCDE900014D4832463B460421AF
:101CF0007844FFF735FC32463B46FEF7DEFB002218
:101D00002B46FEF733FB834602913046394602F0FC
:101D1000E3FB804643480D46504517DCDDE90001F2
:101D20005A46029BFEF73BFC42462B46FEF7C5FB9C
:101D300042462B46FEF71AFB0122FEF700FE304A10
:101D4000304BFEF7B4FB304A304B4CE04FF0000A0A
:101D500052460B464046FEF709FBCDE903105246BA
:101D60002B4610461946FEF7A8FB32463B46FEF7C7
:101D7000A1FBDDE90332FEF712FC06460F46DDE962
:101D800000015A46029BFEF70AFC8346009101229D
:101D900030463946FEF7D3FD194A1A4BFEF78AFB47
:101DA00006460F46012240462946FEF7C8FD5A4620
:101DB000009BFEF782FB32463B46FEF778FB064669
:101DC0000F46012250462946FEF7B9FD0E4DDFF8B9
:101DD00058802A464346FEF76DFB32463B46FEF7E7
:101DE00069FB2A464346FEF765FB002CD8BF81F00D
:101DF000004106B0BDE8F08D0000F03F0000F07F2C
:101E0000075C143326A6913C182D4454FB21F93F5E
:101E10000000E03F2C36000042360000B6350000DE
:101E2000CC3500003333EF3FFB21E93F2DE9F84F7C
:101E300004460D4621F0004000917349814211DCB7
:101E40007249884201DC06D12CB120462946BDE802
:101E5000F84FFFF7DABB6E48002DCCBF6D496E49D5
:101E6000BDE8F88F6D49814211DD6D498142D8BFCF
:101E70004FF0FF366DDD20462946FFF75DFB042855
:101E800008BFFFF7CDFB20462946BDE8F88F65491E
:101E9000654F25F00045814233DD6449814219DDFB
:101EA000002632464FF0804320462946FEF75EFA70
:101EB00080468A46012220462946FEF740FD002240
:101EC0003B46FEF7F4FA42465346FEF768FB0446EB
:101ED0000D463EE001260022BA463B4620462946F2
:101EE000FEF744FA80460F46002253462046294614
:101EF000FEF7DDFA42463B46FEF751FB04460D462F
:101F000027E04B4981421BDDDFF828A10226002291
:101F1000534620462946FEF7D0FA00223B46FEF7FC
:101F200025FA80460F460022534620462946FEF7F2
:101F3000BEFA42463B46FEF732FB04460D4608E039
:101F4000032622462B4600203B49FEF728FB044689
:101F50000D4622462B4610461946FEF7AEFA8B4632
:101F6000824602460B46FEF7A8FA07460246334869
:101F700088460B4606217844FFF7F2FA52465B4644
:101F8000FEF79BFA82462E488B463A464346052189
:101F90007844FFF7E5FA3A464346FEF78EFA0246E2
:101FA0000B46002E504659460CDAFEF7DFF9224662
:101FB0002B46FEF782FA01B022462B46BDE8F04FD1
:101FC000FEF778BAFEF7D2F922462B46FEF775FAED
:101FD0001C4A7A4402EBC603D3E90023FEF767FAF2
:101FE00022462B46FEF763FA174A7A4402EBC603F1
:101FF000D3E90023FEF75EFA009A002AB8BF81F009
:102000000041BDE8F88F0000000010440000F07FA0
:10201000182D4454FB21F93FFB21F9BF0000DC3FA0
:102020000000203E0000F33F0000F03F0000E63FCC
:10203000008003400000F83F0000F0BFCE330000F6
:102040008C3300002A330000F23200002DE9F04DFD
:102050009446CCF1000423F000464CEA0404524FAD
:1020600046EAD4749A46884621F00042BC4206D81B
:10207000454240EA050442EAD474BC4204D9BDE8B2
:10208000F04D6246FFF7C4BAAAF14055A5F17F654D
:1020900055EA0C040BD0022404EAAA74434DDFF87D
:1020A00010E144EAD87452EA000B04D00CE0BDE819
:1020B000F04DFFF7BBBE002C14BF012CBDE8F08D26
:1020C000022C30D0032C32D056EA0C0B0AD0BE4280
:1020D00020D1BA4209D126F0804622F08042334610
:1020E000114617E000291ADB25E0DFF8C8B0FB44F1
:1020F000002C04BFDBE90001BDE8F08D012C02BF1C
:10210000DBE9000181F00041BDE8F08D022C0AD02E
:10211000032C0CD0BA4212D1B8F1000F0BDA2348CD
:102120002549BDE8F08D28462449BDE8F08D2846B4
:102130007146BDE8F08D1D482149BDE8F08D921B28
:1021400012153C2AC4BF19481D490EDCBAF1000F14
:10215000BEBF12F13C0F0020014606DB6246FEF7CF
:102160001EFA21F00041FFF761FE002C08BFBDE818
:10217000F08D012C04BF81F00041BDE8F08D114AC3
:10218000114B022C07D0FEF792F92A46BDE8F04D1C
:102190000A4BFEF78CB9FEF78AF92A46BDE8F04DE6
:1021A000064BFEF787B900000000F07F182D44545D
:1021B000FB2109C086320000FB21F9BFFB21094049
:1021C000FB21F93F075C143326A6A13C10B56FF044
:1021D0000400FFF79FF8094809490068B0FBF1F0D7
:1021E0000849C0B200EB40020870C2EBC0104FF6C5
:1021F000FF7202EAC000488010BD0000C00000204D
:1022000000127A00000000200B49498848434FF033
:10221000E021486100238B61086940F001000861FA
:102220000869C20701D0C003FAD5086920F001008F
:1022300008618B6170470000000000200B4909789D
:1022400048434FF0E021486100238B61086940F06A
:10225000010008610869C20701D0C003FAD5086906
:1022600020F0010008618B61704700000000002031
:1022700008B560B120208DF8000028208DF80100FD
:1022800030208DF8020038208DF8030004E0A322EE
:1022900004216846FDF777FF6A46042140F69E2038
:1022A00002F06EF801F032FD08BD00003EB50446B4
:1022B00002208DF80000CA208DF80100E3208DF87F
:1022C000020009208DF803006A460421682002F00C
:1022D00057F8A3208DF80000610609D5C0218DF8BC
:1022E0000110C8218DF80210C2218DF8031005E0FD
:1022F0008DF801008DF802008DF8030014F4C07F02
:1023000009D0C4218DF80410CC218DF80510C62108
:102310008DF8061005E08DF804008DF805008DF8A5
:1023200006008DF808008DF807008DF809006A4650
:102330000A2140F6A72002F023F8A0074FF0D805A5
:1023400003D020208DF8000001E08DF800506A468F
:10235000012140F6B62002F013F8A00601D50120B5
:1023600000E0002000F090F814F4C07F1ED0E005DB
:102370000AD5B2208DF800008B208DF80100B62020
:102380008DF802009B2009E0B0208DF8000080202D
:102390008DF80100B4208DF8020090208DF8030024
:1023A0006A46042140F6A22001F0EAFFE0074FF45C
:1023B0000B6323D0F8208DF800006A4601211846EF
:1023C00001F0DEFFFA21072000F03AFB072000F0C1
:1023D00005FB012000F022FB642000F0C5FB4FF458
:1023E000FA7000F0D1FBC821254800F0BFFA282080
:1023F00000F0D4FA0A2000F0E1FA06E08DF800506F
:102400006A460121184601F0BBFFA00703D5D92079
:102410008DF8000001E08DF800506A46012140F27D
:102420003D7001F0ADFF600701D5012000E0002004
:1024300000F046F8E00601D5012000E00020FFF79B
:1024400017FF104D44F00800688101F05FFC002088
:10245000A873600601D50620A87314F4C07F02D0CB
:10246000A87B801DA87314F0140F02D0A87B103035
:10247000A873A00702D0A87B001DA87300203EBD52
:1024800009E3CA02C00100200EB54FF4976308B1FA
:1024900005A000E007A007C88DE807006A460921EB
:1024A000184601F06DFF0EBDB8AAB38DB4980D3576
:1024B0005D000000B8AAAAAAB088C3C5C700000082
:1024C00008B560B1C0208DF80000C2208DF8010071
:1024D000C4208DF80200C6208DF8030004E08B2292
:1024E00004216846FDF74FFE6A46042140F6982015
:1024F00001F046FF01F00AFC08BD0000C8234FF4BC
:102500008062024940F6F63001F0E0BA98460008D1
:102510002DE9FF4F89B01646DDE916520024DFF899
:1025200034810F4681462C80A24698F80E006946F9
:1025300001F07AFB4FF0FF3B18B158460DB0BDE8F3
:10254000F08FB8F80A0010F0140F3CD0009909BAC7
:1025500021F0FF0C9DF803104CEA010CC6F800C0F6
:10256000019909BA21F0FF039DF807100B4373602E
:1025700002999DF80B2009BA21F0FF011143B160C7
:10258000039A9DF80F4012BA22F0FF022243F26034
:102590004FEA2C4609141B1412147643494303FBDB
:1025A000036302FB021119441024A1F17061B1F11F
:1025B000007F04D901F0AAFBA5F800A0BDE7298897
:1025C00041F48071298041066A460ED51119A41D77
:1025D0000B885BBA3B804B885BBA7B80898849BAA1
:1025E000B980298841F00801298010F4C07F11D0FA
:1025F0001119A41D0B885BBAA9F800304B885BBA8F
:10260000A9F80230898849BAA9F80410298841F04C
:1026100070012980800718D01444E07800F0C005CC
:1026200000F03F016078C00707D0C80801F007013B
:10263000D8F80020491C02B190476078000704D503
:10264000D8F8041009B1A80988470C9800F08AFF4F
:10265000002073E7C00100202DE9FF41044603A8D4
:1026600001F0EAF8BDF80C00420CC3032F480189C1
:1026700001F003004D0754F8200000D54042C1F39B
:10268000C1058E0654F8255000D56D42C1F3811660
:10269000C90554F8264000D56442A0FB0367C11762
:1026A00001FB037100FB0210810041EA9670A5FB5B
:1026B0000367E91701FB037105FB02118D0045EA71
:1026C0009671A4FB0367E51705FB037304FB023255
:1026D000930043EA9672030E8DF80030030C8DF8D8
:1026E0000130030A8DF802308DF80300080E8DF8D2
:1026F0000400080C8DF80500080A8DF80600100E7D
:102700008DF80800100C8DF80900100A8DF80A00E9
:102710008DF807108DF80B206A460C214FF42570B8
:1027200001F02EFE04B0BDE8F0810000C0010020E1
:1027300030B5044613A185B007C98DE807004FF0F6
:10274000FF35C82C16D8C820B0FBF4F1491E080A82
:102750008DF80C008DF80D1003AA022140F216200E
:1027600001F00EFE30B96A460C2140F6C12001F09E
:1027700007FE10B1284605B030BD05488481002011
:10278000F9E70000FEF2ABC4AAF1DFDFBBAFDFDF89
:10279000C0010020F8B53049098901F0030250F862
:1027A00022404A0700D56442C1F3C10250F82230EA
:1027B0008A0600D55B42C1F3811250F82220C80579
:1027C00000D55242254984FB0140850045EA9470BA
:1027D00083FB014382FB0121950F45EA8105010E30
:1027E0008DF80010010C8DF80110010A8DF802100F
:1027F000A40F8DF8030044EA83046A4604214FF4D1
:10280000747001F0BDFD4FF0FF3688B9200E8DF8D1
:102810000000200C8DF80100200A8DF802008DF8D0
:1028200003406A4604214FF4757001F0A9FD08B118
:102830003046F8BD280E8DF80000280C8DF80100F8
:10284000280A8DF802008DF803506A4604214FF4DF
:10285000767001F095FDF8BDC001002009E3CA02C1
:102860002DE9FF4104463CA002AB006802903BA06A
:10287000006803903AA006683AA0056804F00300D7
:10288000195C8DF80010C4F3C1015A5C8DF8012069
:10289000C4F381129B5C8DF8023003AB185C8DF899
:1028A0000400585C8DF80500985C8DF806006A46B7
:1028B000032140F2264001F063FD4FF0FF37E0BBFB
:1028C00001AA032140F22A4001F05AFDA8BBCDE93C
:1028D000006560070BD59DF8000040F001008DF801
:1028E00000009DF8040040F001008DF80400A006EF
:1028F0000BD59DF8010040F001008DF801009DF816
:10290000050040F001008DF80500E0050BD59DF8AD
:10291000020040F001008DF802009DF8060040F032
:1029200001008DF806006A4603214FF4886001F02B
:1029300027FD10B901AA032100E004E040F2314074
:1029400001F01EFD18B1384604B0BDE8F08106481C
:1029500004810020F8E700004CCD6C000CC92C006D
:102960003656760026466600C00100204FF47A7283
:1029700090FBF2F008B54843010E8DF80010010CF1
:102980008DF80110010A8DF802108DF803006A46D7
:1029900004214FF4AE7001F0F3FC08BD0521B0FB3B
:1029A000F1F008B5010A8DF800108DF801006A46B3
:1029B00002214FF4AD7001F0E3FC08BD0521B0FB2E
:1029C000F1F008B5010A8DF800108DF801006A4693
:1029D00002214FF4AC7001F0D3FC08BD08B5002112
:1029E0008DF80010C10702D030218DF8001081074A
:1029F00005D59DF8001041F00C018DF8001040073E
:102A000005D59DF8000040F003008DF800006A46EF
:102A100001214FF4A47001F0B3FC08BD08B560B10A
:102A2000042800D90420401E8DF800006A460121C8
:102A300040F24F1001F0A4FC08BD0120F3E70000B4
:102A40002DE9FC41054640074FF0FF367CD0B1F53B
:102A5000C86F79D80846FDF71AFE3E49FDF73CFCE1
:102A6000074601A800F0CAFE9DF80400022806D01F
:102A700004280DD008282ED0102865D134E00E216E
:102A80003846FDF767FCFDF731FE84B2324907E0B6
:102A90000D213846FDF75EFCFDF728FE2F4984B274
:102AA0003846FDF7E7FBFDF721FE210A8DF80010FF
:102AB00080B28DF80140010A8DF802108DF80300F4
:102AC000E8076C4620D0224602214FF4EA7001F05C
:102AD00057FCC8BB11E00C213846FDF73BFCFDF765
:102AE00005FE84B21E49DBE70B213846FDF732FCB8
:102AF000FDF7FCFD84B21B49D2E7A21C02214FF472
:102B0000927001F03DFCF8B9A8070DD56A46022184
:102B10004FF4EC7001F034FCB0B9A21C02214FF468
:102B2000947001F02DFC78B9680710D56A4602212F
:102B30004FF4EE7001F024FC30B9A21C02214FF4D6
:102B4000967001F01DFC10B13046BDE8FC810020FC
:102B5000FBE7000000004843000040460000C0457D
:102B6000000040450000C0440521B0FBF1F008B56D
:102B7000010A8DF800108DF801006A4602214FF419
:102B8000EF7001F0FDFB08BD0521B0FBF1F008B5C9
:102B9000010A8DF800108DF801006A4602214FF4F9
:102BA000ED7001F0EDFB08BD04490A885206FCD522
:102BB000024AC1B2121D1180704700000038014066
:102BC00070B50F4A911E881EFEF758F80C4C241F52
:102BD000B4F90400FDF760FD05460E46B4F90200A5
:102BE000FDF75AFD2A463346FFF730FA4FF0005200
:102BF000044BFDF762FCFDF7A0FDE06070BD000036
:102C000010000020DCA54C402DE9FC470546254876
:102C10006B46042240680D210078FEF7DFF910B101
:102C20000720BDE8FC879DF800001C2101EAD002C6
:102C30009DF80300DFF87090C0F301131A438DF87C
:102C400004209DF80120C0F3810301EAD2021A4357
:102C50008DF805209DF8022000F0030001EAD20162
:102C600001430024114F8DF80610A04601AE305DDF
:102C700010B145F8249009E045F824800CE055F89F
:102C800024003946FDF7F6FA45F82400305D401E71
:102C900010F0FF003055F2D1641CE4B2032CE6D3EF
:102CA0000020BEE7740000207B14AE3E1D5A843F16
:102CB000084A10B5911E881EFDF7F9FF054C0A3C25
:102CC000B4F90600FDF7DAFC0349FDF705FB606186
:102CD00010BD000016000020333383412DE9FE4F64
:102CE00005460120C14E8DF800004FF000088DF818
:102CF000018030680C461746817C70686B46022262
:102D00000078FEF7F7F94FF0FF3A00287AD1C82093
:102D1000FFF77AFA8DF8008030686B460122C17B9C
:102D200070680078FEF7E6F90028EFD130686B464E
:102D30000122417970680078FEF7DCF90028E5D1BE
:102D400030686B460122817C70680078FEF7D2F90A
:102D50000028DBD130686B460122C17D70680078A5
:102D6000FEF7C8F90028D1D130686B4601220179FD
:102D700070680078FEF7BEF90028C7D14FF00C0943
:102D80008DF8009030686B460122017970680078F8
:102D9000FEF7B0F9002835D10F20FFF735FAB06AF9
:102DA0006B460122407A8DF80000306881787068A7
:102DB0000078FEF79FF9002824D1B06A6B46012203
:102DC000007A8DF800003068417870680078FEF76E
:102DD00091F9002873D1B06A807A0FB140F0E00019
:102DE0008DF8000030686B460122817970680078A8
:102DF000FEF780F9002862D12FB1B06AC07A40F0A6
:102E0000E00001E04AE018208DF8000030686B46D1
:102E10000122C17970680078FEF76CF9F0BB17B138
:102E2000C820FFF7F1F940208DF8000030686B46AC
:102E30000122017970680078FEF75CF970BB782098
:102E40008DF8000030686B46012241797068007887
:102E5000FEF750F910BB3220FFF7D6F98DF800804D
:102E6000306847466B464179706801220078FEF76A
:102E700041F998B931687068B046897A00786B4634
:102E80000222FEF7ABF848B9BDF80000AF6040BAC7
:102E9000B0FBF9F06F60C6B22F6000E00FE0A760F2
:102EA00067602760002739E0D8F80010D8F80400E0
:102EB0006B46C97A00780C22FEF790F810B15046A4
:102EC000BDE8FE8FBDF80000236840BA02B2BDF82D
:102ED00002001A4440BA01B2BDF8040022606268E0
:102EE00040BA11446160A16800B20844A060BDF816
:102EF00006002B6840BA02B2BDF808001A4440BA76
:102F000001B2BDF80A002A606A6840BA11446960DB
:102F1000A96800B208447F1CFFB2A860B742C3D3BF
:102F200028688322C117090441EA104100040023E4
:102F3000FDF7F8F832460023FDF7F4F828606868DA
:102F40008322C117090441EA104100040023FDF760
:102F5000E9F832460023FDF7E5F86860A8688322A7
:102F6000C117090441EA104100040023FDF7DAF813
:102F700032460023FDF7D6F8A86020684FF40065BC
:102F8000C117090441EA104100042A460023FDF755
:102F9000C9F832460023FDF7C5F8206060682A466C
:102FA000C117090441EA104100040023FDF7BAF8F3
:102FB00032460023FDF7B6F86060A0682A46C117C4
:102FC000090441EA104100040023FDF7ABF8324642
:102FD0000023FDF7A7F8A060002802DDA0F58030EF
:102FE00001E000F58030A060002069E77400002057
:102FF0002DE9F041E4B000246E46FFF759FE46F893
:1030000024000A20FFF700F9641C642CF5DB164D40
:1030100000273C466F6256F82410686AFDF7D2F824
:10302000641C6862642CF6DBDFF840804146FDF7E3
:1030300053F9C5E9090704460027214656F8270039
:10304000FDF712F90146FDF715F9A96AFDF7BAF87F
:103050007F1CA862642FF0DB4146FDF73DF9A862B2
:1030600064B0BDE8F08100000C0000200000C84200
:103070002DE9F84F82462F488946002540686B4667
:10308000032200780D21FDF7A9FF10B10720BDE84C
:10309000F88F9DF80000002400F01F008DF800005C
:1030A0009DF801006F4600F01F008DF801009DF8AB
:1030B00002004FF0010800F01F008DF802005AF8DE
:1030C000241059F82400081A00D54042FDF7D6FA1A
:1030D0006FF00F01FDF73EF90646385DE0B1164A84
:1030E000DFF858B004E059461046FDF7C3F8024631
:1030F000385D401E10F0FF003855F4D111463046BF
:10310000FDF7EAF84FF07E51FDF7AEF80C4920F0DC
:103110000040884205DC07E00A483044B0F1D97F1E
:1031200002D908FA04F00543641C032CC7DB2846C7
:10313000ADE70000740000200000C84154E3853F63
:10314000295C0F3E0000E0BE00B5024600F00DF81D
:103150000346D01C00F009F843EAC003901D00F0BC
:1031600004F843EA801080B200BD90F900100029F5
:1031700002DD4FF00000704702DA4FF004007047A4
:1031800090F90110002902DD4FF00100704702DACA
:103190004FF00500704790F90200002802DD4FF063
:1031A0000200704702DA4FF0060070474FF0070048
:1031B000704700002DE9F043B3B0FFF701FD8146F1
:1031C000FFF776FD002580461B951C95239502236D
:1031D000012223A97648249500F0B0F902240126A3
:1031E0000094CDE9014623461BAA23A9714800F0AB
:1031F0003CF931950094CDE90146012331AA1BA980
:103200006B4800F032F96A4F3198343F396AFCF765
:10321000D9FF01464FF07E50FDF75EF8014600965B
:103220001D9502231DAA1BA81E9500F04EF932958C
:103230000094CDE90146012332AA07F13C015C4824
:1032400000F013F948463299FDF70EF8014629952A
:10325000022329AA1DA800962A9500F036F907F145
:103260004402022329A9A2F10800009600F0E0F828
:1032700051480F951095119512950FC80DF17C09C5
:10328000009689E80F00CDE9016402230FAA48499E
:103290001DA800F0EAF8149513951595022313AABA
:1032A0000FA91FA81695009400F02BF9414A00942D
:1032B0000194022310323F4913A8029400F0D5F87C
:1032C00028952595269527950094CDE9014607F187
:1032D0004401022325AA01F1080000F0C6F80223E8
:1032E00027AA414607F12C00009600F0EEF80223D1
:1032F00007F13C0227A925A8009600F099F803954C
:1033000004950595069507950895099502230A9554
:103310000B950C950D951A460BA907F14C000E95CF
:1033200000F00CF9234900940194022303AA103100
:1033300007F14C00029400F098F8009401940223E5
:1033400007AA0BA903A8029400F08FF82F95012378
:1033500002222FA907F12C00309500F0EFF800961B
:10336000CDE9016402232BAA2FA907F12C0000F05C
:103370007CF81995179518951A950094022317AAA9
:103380002BA8B96A00F0A1F802230A4A17A907A8D6
:10339000009400F04DF807F144000168396141687C
:1033A0004046FCF761FFB86133B0BDE8F083000030
:1033B00040000020A00100203846000810B5FEF7AC
:1033C0007FFBFFF715FE08480021A0F13C020160D9
:1033D000536A436005484FF07E53C0E90031816075
:1033E000916AC16010BD000048000020A0010020CB
:1033F000FEF7ECFE4FF4E13001F094F8FDF7ECFB42
:10340000FDF794FD00F0AAF9FFF7D8FFFDF700FCE7
:10341000054D064CA120296801F01CF8A220216866
:1034200001F018F8F6E700001C0000206C000020F6
:103430002DE9F05F9B4690468946824600250A9F0B
:103440000FE000240AE005FB074659F826105AF859
:103450002600FCF7B7FE48F82600641CBC42F2DBED
:103460006D1C5D45EDDBBDE8F09F2DE9FF5F174664
:103470008B460026DDF838A0DDF8409020E00025DE
:103480001BE006FB0958002147F828100C4611E004
:1034900004FB095106FB0A4200985BF8211050F822
:1034A0002200FCF7E7FE57F82810FCF78BFE47F8E0
:1034B0002800641C5445EBDB6D1C4D45E1DB761C9C
:1034C00003988642DBDBBDE8FF9F2DE9F05F9A465B
:1034D00090468B46814600250A9F0EE0002409E0B5
:1034E00005FB0746584659F82610FCF7C3FE48F876
:1034F0002600641CBC42F3DB6D1C5545EEDBBDE8C9
:10350000F09F2DE9F05F9B46904689468246002554
:103510000A9F0FE000240AE005FB074659F8261031
:103520005AF82600FCF7A0FE48F82600641CBC42AE
:10353000F2DB6D1C5D45EDDBBDE8F09FF0B50025CD
:103540000DE0002408E005FB034604FB025750F899
:10355000266041F82760641C9C42F4DB6D1C954298
:10356000EFDBF0BD704700002DE9F041134D20F076
:103570000104002695F8240010B10020BDE8F08178
:10358000A87A4FF0FF3838B120402F7C2874A04231
:1035900000D0464624B901E04046EFE7287D40B11F
:1035A000012000F06FFF3CB100F0B0FB20B12F74A0
:1035B000F2E7002000F066FF3046DFE774000020ED
:1035C0002DE9F74F8EB00CA906A8CDE900010BAB91
:1035D00002AA09A907A8FEF79BFF18B1012011B0A4
:1035E000BDE8F08FBDF81800C0057DD50298FDF745
:1035F00045F86FF01D042146FCF7ACFE81460398A8
:10360000FDF73CF82146FCF7A5FE80460498FDF73F
:1036100035F82146FCF79EFE06460598FDF72EF884
:103620002146FCF797FE824601214846FCF792FEB0
:1036300007463146FCF71EFE04464FF04041404627
:10364000FCF718FE05465146FCF714FE2146FCF730
:10365000B9FDFDF75FF8FEF7B1FA4FF0663B5A4649
:103660003D4BFCF72AFFFDF768F80E990860012131
:103670003046FCF76FFE31460090FCF7FBFD044638
:1036800028464146FCF7F6FD2146FCF7EDFD4FF0DC
:103690007E51FCF797FDFDF73DF804460D46384690
:1036A0004146FCF7E7FD074651460098FCF7E2FD6E
:1036B0003946FCF787FDFDF72DF822462B46FEF72D
:1036C000C5FC5A46244BFCF7F8FEFDF736F80F9977
:1036D000086051460846FCF7CDFD074631460846CE
:1036E000FCF7C8FD054600E034E041460846FCF71B
:1036F000C1FD044649460846FCF7BCFD2146FCF7DF
:1037000061FD2946FCF7B0FD3946FCF7ADFDFDF73C
:1037100001F804460D4651464846FCF7ABFD074606
:1037200031464046FCF7A6FD3946FCF74BFD01212A
:10373000FCF710FEFCF7EEFF22462B46FEF786FC58
:103740005A46054BFCF7B9FEFCF7F7FF10990860E5
:10375000002044E7022042E766A64C4010B5FDF782
:10376000DFFA00F0EFF888BB782000F0ADFD10F034
:10377000FF0F01D0012010BD7820FFF7F5FE10F0FB
:10378000FF0F01D0022010BD642000F061FD10F099
:10379000FF0F01D0032010BDFEF7B0FE10F0FF0FA9
:1037A00001D0042010BD1448FFF7CEFCFFF758F8F5
:1037B00010F0FF0F01D0052010BD40F27310FEF78E
:1037C00075FD10F0FF0F02D0062010BD11E064203F
:1037D000FEF7AEFF10F0FF0F01D00720F5E700F075
:1037E000F9FD012000F05AFC10F0FF0F01D0092074
:1037F000EBE70020E9E70000A00000200D4A517A25
:1038000041B1012908D002290FD003290FD04FF070
:10381000FF307047022100E004210170D17C11B11A
:10382000017849000170002070470821F5E7102158
:10383000F3E70000740000200F4A517A41B10129DA
:1038400009D0022911D0032912D04FF0FF30704760
:103850004FF4804101E041F69C710180D17C11B1AF
:10386000018849080180002070474FF48051F4E737
:103870004FF40061F1E70000740000200B49097A61
:1038800039B1012907D002290AD003290BD0002120
:1038900003E0FA2101E04FF4FA7101800020704743
:1038A0004FF47A71F9E74FF4FA61F6E774000020FB
:1038B0000A49097A41B1012908D002290AD003290D
:1038C0000AD04FF0FF307047054900E0054901601C
:1038D000002070470449FAE70449F8E77400002023
:1038E00000000343000083423333034233338341F8
:1038F0000C49C97A072913D2DFE801F01204060A3D
:103900000C0E1000BC2100E06221018000207047F5
:103910002A21FAE71421F8E70A21F6E70521F4E75E
:103920000021F2E774000020054991F8242012B12B
:103930004FF0FF307047C9890180002070470000B8
:10394000740000202DE9FC414C4C80208DF80000D3
:1039500020686B460122817C60680078FDF7CAFB15
:103960004FF0FF37002832D16420FEF74DFC0025D0
:103970008DF8005020686B460122817C60680078D9
:10398000FDF7B8FB002870D120686B460622817DC8
:1039900060680078FDF722FB002866D19DF80500DD
:1039A0009DF80310C007400F01F0010140EA4101FA
:1039B0009DF801004FF0010600F00100014309D01D
:1039C000012905D0022915D02DA0FDF7A5FD4CE059
:1039D000E67410E020686B460122C17860680078C8
:1039E000FDF7FCFA40BB9DF8000010F00F0020D05E
:1039F000042822D0E574FF2004F80A0F4FF6FF7167
:103A000004F8020C04F8010C6070A180A07120720F
:103A1000A67026766576E572A572E560256165611A
:103A2000A576E576A5834FF4FA6000F073FB18B92C
:103A300007E01D48FDF770FD17E01CA0FDF76CFDC9
:103A4000C6E7022000F088FA78B92A2000F0CAFB05
:103A500058B9322000F0FCFB38B90020FFF784FD94
:103A600018B9002000F0ACFA10B13846BDE8FC816E
:103A7000002000F029FC0020F8E70000740000207E
:103A8000556E737570706F7274656420736F6674B1
:103A9000776172652070726F6475637420726576E9
:103AA0002025642E0A0000008053000848616C66DF
:103AB0002073656E736974697669747920706172B8
:103AC0007420666F756E642E0A0000002DE9FF4FAA
:103AD000DFF898A0054685B09AF8250091468846FB
:103AE0004FF0FF3BC0BBB8F1000F35D000241FE002
:103AF000281B102800DD102086B208EB04073A4688
:103B00003146204600F03CFC30BB6A463146204638
:103B100000F0D2F800BB384632466946FCF745FB58
:103B200020B16FF0010009B0BDE8F08FA01984B298
:103B3000AC42DDD34FEA19208DF810008DF81190BA
:103B4000DAF80000544604AB817EDAF80400022261
:103B50000078FDF7CFFA08B15846E4E7012084F871
:103B600025000898E0840020DDE7000074000020B4
:103B70002DE9F84304464FF0FF39282844D8072799
:103B8000284D00267CB1012000F0FAFA20208DF8A3
:103B900000004FF00108012C17D0052C18D88DF823
:103BA000018005201FE0002000F0EAFA8DF8006097
:103BB0008DF8017028686B460222817C6868007865
:103BC000FDF798FA00BB2E7529E08DF80160E8E753
:103BD000142C04D802208DF801000A2003E00320F1
:103BE0008DF80100142000F0FDFA9DF801006B46ED
:103BF00007EB80108DF8010028680222817C68683C
:103C00000078FDF777FA10B14846BDE8F883082040
:103C1000A8722E7385F814800020FFF7A5FC002001
:103C2000F3E70000740000202DE9F843214E05461B
:103C3000174696F8240089464FF0FF3890B3B07AC3
:103C400080B330686B460222817A70680078FDF795
:103C5000C5F938BBBDF8000044BAAC4202D200201E
:103C600038701FE070684188B4EB510F11D931688A
:103C700000786B46497C0122FDF7B0F990B99DF8B8
:103C80000000C00605D500F041F86FF00100BDE866
:103C9000F8833068EAB24B46C17A70680078FDF765
:103CA0009DF908B14046F2E7B4FBF5F0401E3870CC
:103CB0000020ECE774000020F8B517000D464FF027
:103CC000FF341FD0104EB17AE1B1010A8DF8001017
:103CD000C0B28DF80100411970684289914211D833
:103CE000316800786B46097E0222FDF703FA48B975
:103CF0003068EAB23B46417D70680078FDF76EF9A6
:103D0000002800D02046F8BD74000020F8B5554DBD
:103D10004FF0FF36A87A00287ED000248DF80040AE
:103D200028686B460122C17B68680078FDF7E2F9DC
:103D3000002871D128686B460122417968680078B3
:103D4000FDF7D8F9002867D128686B460122017970
:103D500068680078FDF7CEF900285DD195F8240059
:103D6000E0B30C208DF8000028686B460122017931
:103D700068680078FDF7BEF9002871D13220FEF79F
:103D800043FAC0208DF80000A87AC00702D0E020D6
:103D90008DF8000028686B46012201796868007878
:103DA000FDF7A8F900285BD1687C18B102208DF8D6
:103DB000000001E08DF8004028686B460122C17BBD
:103DC00068680078FDF796F930BB8DF800402868E8
:103DD0006B4601224179686800783DE0FFE70420E6
:103DE0008DF8000028686B46012201796868007828
:103DF000FDF780F980B9A87C88B9A87AC0070ED0F1
:103E000060208DF8000028686B46012201796868FF
:103E10000078FDF76FF900E022E008BB01E04020E8
:103E2000EFE73220FEF7F0F9687C18B101208DF839
:103E3000000001E08DF8004028686B460122C17B3C
:103E400068680078FDF756F950B92868054B0122DB
:103E50004179686810330078FDF74CF9002800D0EC
:103E60003046F8BD740000202DE9F047394E8246F7
:103E70008AB096F824000F4620B1002000F00EF919
:103E8000012500E0002507A8FFF7F8FC06A8FFF7CA
:103E9000B5FC09A8FFF72CFD08A8FFF745FD96F82B
:103EA0000A9096F810800024002239465046FEF70A
:103EB00015FF10B1641C022CF6DB022C1AD0002472
:103EC000012203A96846FEF709FF10B1641C022C09
:103ED000F6DB022C0ED003A93846FDF731FEC7B23F
:103EE00069465046FFF7C4F810F0FF0F4FF000048A
:103EF00002D002E0002403E001240FB944F00204E0
:103F0000FF2030727072F0724FF6FF71F181B07263
:103F1000307401203073BDF81C0000F0FBF89DF8F0
:103F2000180000F019F8BDF8240000F05BF9BDF8A6
:103F3000200000F08DF9484600F0C6F94046FFF732
:103F400013FB15B1012000F0A9F80AB02046BDE826
:103F5000F08700007400002038B5184C4FF0FF3592
:103F6000A17A19B3022806D0042806D008280ED05A
:103F700010281BD10DE0002000E008208DF8000083
:103F8000607A9DF80010B0EBD10F04D005E010204E
:103F9000F4E71820F2E7002038BD20686B460122C4
:103FA000C17960680078FDF7A5F808B1284638BDEA
:103FB0009DF80000C0086072EDE70000740000206A
:103FC000F8B5354D0446A87CA04201D10020F8BDCB
:103FD00031484FF0FF366B46D0E900104FF0010238
:103FE0000979007834B3FCF7F9FF70BB9DF8000045
:103FF0006B4620F020008DF800002868012201792E
:1040000068680078FDF776F8F8B90320FEF7FCF849
:1040100002208DF8000095F8220078B382202BE072
:1040200028686B460122017D68680078FDF762F818
:1040300058B92EE0FCF7D2FF38B9A87AC0079DF82E
:10404000000003D040F0200002E00CE020F020004F
:104050008DF8000028686B460122017968680078B5
:10406000FDF748F808B13046F8BD0320FEF7CCF85C
:1040700095F8220000B180208DF8000095F823000B
:104080000028CDD09DF8000040F030008DF80000F1
:10409000C6E7AC749AE700007400002038B51C4CE9
:1040A00094F8241081421DD0002500B394F8250017
:1040B000D0B1002000F0E6F90020FFF781FFE08C8E
:1040C00000F0C6F88DF8005060686B460122007859
:1040D0002321FDF70FF8012084F8240000F0D2F925
:1040E000FFF714FE002038BD4FF0FF3038BD002030
:1040F00000F0C8F9207C8DF8000060686B46012252
:1041000000782321FCF7F6FF84F82450E8E700004C
:104110007400002038B5194C4FF0FF35A17A31B347
:10412000FA2809D0B0F5FA7F08D0B0F57A7F0FD021
:10413000B0F5FA6F1BD10DE0002000E008208DF8EB
:104140000000207A9DF80010B0EBD10F04D005E0FC
:104150001020F4E71820F2E7002038BD20686B46F5
:104160000122817960680078FCF7C4FF08B1284615
:1041700038BD9DF80000C0082072EDE774000020F3
:1041800038B5174D044695F82300A04201D1002010
:1041900038BD0CB1302000E000208DF80000A87C74
:1041A00028B19DF8000040F002008DF8000095F85D
:1041B000220028B19DF8000040F080008DF800003A
:1041C00028686B460122017D68680078FCF792FF41
:1041D00010B14FF0FF3038BD85F82340D7E700001D
:1041E0007400002038B5194C4FF0FF35A17A31B377
:1041F000BC2801D3012010E0622801D302200CE08A
:104200002A2801D3032008E0142801D3042004E065
:104210000A2801D3052000E006208DF80000E07A8E
:104220009DF80010884201D1002038BD20686B46FF
:104230000122817860680078FCF75CFF08B12846AD
:1042400038BD9DF80000E072EEE700007400002029
:10425000F8B51C4D04464FF0FF37A87A28B395F8FF
:10426000240010BB287D48B12CB1282C03D8E0B223
:10427000FFF77EFC24E00020FFF77AFC4FF47A760B
:10428000042C01D2042402E0B44200D93446B6FB27
:10429000F4F0401E8DF8000028686B46012241783A
:1042A00068680078FCF726FF08B13846F8BD9DF82D
:1042B0000000401CB6FBF0F0E8814008FFF792FFD9
:1042C0000020F8BD74000020F8B5044610F0700F0F
:1042D0004FF0000601D0012004E014B18DF8006019
:1042E00002E040208DF80000244D6B460122286832
:1042F000817C68680078FCF7FDFE4FF0FF3760BBFB
:104300009DF8000020F0400028738DF800606006E2
:1043100002D404208DF80000A00605D49DF800000A
:1043200040F002008DF80000E00605D49DF8000082
:1043300040F001008DF80000200705D49DF8000032
:1043400040F038008DF8000028686B460122C17CDF
:1043500068680078FCF7CEFE10B1AE723846F8BD42
:1043600024B1082C02D00020FFF70AFFAC722E7592
:104370003220FDF749FF0020F8BD00007400002046
:10438000F8B517000D464FF0FF341FD0104EB17A2C
:10439000E1B1010A8DF80010C0B28DF80100411999
:1043A00070684289914211D8316800786B46097E65
:1043B0000222FCF79FFE48B93068EAB23B46417DD5
:1043C00070680078FCF796FE002800D02046F8BD03
:1043D0007400002010B588B002A905A8FFF744FDBD
:1043E000072802D0012008B010BD6846FFF760FA28
:1043F0000598FCF743F900990C46FBF73BFFFCF7E7
:104400005CF905900698FCF739F92146FBF732FF75
:10441000FCF753F906900798FCF730F92146FBF7B3
:1044200029FFFCF74AF9079005A8FEF7B3F901A8A0
:10443000FFF702FABDF80400029941430291039983
:10444000414303910499414302A80491FEF704F902
:104450000020C8E703B581B004229DF80B108DF849
:1044600000109DF80A108DF801109DF809108DF8C4
:1044700002109DF808108DF80310694600F0A2F8AC
:104480000EBD0000F8B5134C0023224694F82460BA
:10449000D2E900125D1E56B190B102200DE01078F5
:1044A000C97B6B460122FCF725FE60B90DE0A67AB8
:1044B0004EB128B1607C58B901208DF80000EEE7BC
:1044C0008DF80030EBE72846F8BD9DF800006074D9
:1044D0000020F8BD740000202DE9F04106460F468B
:1044E000FCF766FA041E0D4618BF0120284320F091
:1044F0000040C0F17F6000F1E040C00F0ED0301CE2
:1045000018BF0120384320F00040C0F17F6000F167
:10451000E040C00F04BF0120FDF79AF8204629466D
:10452000BDE8F08130B5054687B0012144F20400B2
:10453000FCF746FE4FF40070ADF8100003208DF834
:10454000120018201D4C8DF8130004A92046FCF71A
:10455000EBFA2015ADF8100004208DF8130004A923
:104560002046FCF7E1FA25208DF8140000248DF890
:1045700015408DF8164001208DF8170005A8FCF7AE
:10458000E3FDADF80440ADF80640ADF80840ADF8E5
:104590000C400C200A4CADF80A00009569462046F4
:1045A000FCF760FF012240F225512046FCF741FF55
:1045B00001212046FCF714FF07B030BD0008014080
:1045C0000038014070B588B01C2A29D80DEB0203D1
:1045D0000025DD7088258DF800508DF801006C46AF
:1045E0008DF80220002004E00D5C2618401CF570B8
:1045F000C0B29042F8D30020D51C05E0265CD978E3
:10460000401C3144D970C0B2A842F7D30023151D15
:1046100004E0E05C00F006F85B1CDBB2AB42F8D3D0
:1046200008B070BD03490A885206FCD50149091D2E
:1046300008807047003801400000803F0000000003
:10464000000000000000803F75191A0C6A231B1C33
:104650001F207274433B4138393A6B6C376F062424
:104660006D6E70006800000476005401F7FD0001D3
:10467000830000000008000000010018320005005F
:10468000000020410000D242295C0F3E9A99993ED9
:104690003333733F295C0F3E00007000000000249C
:1046A000000000020003000000650054FFEF00005E
:1046B000FA80000B12820001030C30C30E8C8CE9CF
:1046C00014D5400213710F8E3883F8833000F883BD
:1046D000258EF8833000F883FFFFFFFF0FFEA9D679
:1046E000240004001A8279A10000003CFFFF0000B2
:1046F0000010000038836FA2003E0330400000002D
:1047000002CAE3093E800000200000000000000013
:104710004000000060000000000C0000000C186E5B
:10472000000006920A16C0DFFFFF0256FD8CD37709
:10473000FFE1C496E0C5BEAA00000000FFFF0B2BFE
:1047400000001657000003594000000000001DFA49
:1047500000026C1D000000003FFFDFEB003EB3B61F
:10476000000D227800002F3C00000000001942B527
:10477000000039A20000B365D90E9FC91DCF4C348B
:1047800030000000500000003BB67AE800640000F2
:1047900000C8000000000000100000001000FA92A5
:1047A0001000225E000D229F000100000032000078
:1047B000FF46000063D400001000000004D6000093
:1047C00004CC000004CC0000000010720000004087
:1047D00000000000000000000006000200050007C5
:1047E0000000000000640000000000000000000560
:1047F0000005006400200000000000000000000030
:10480000000040000000030000000032F8980000A3
:10481000FF650000830F0000FF9BFC00000000000C
:104820000000000000000000000000000000000088
:104830000000000000000000000000000000000078
:104840000000000000001000400000000000000612
:104850000000B26A000200000001FB830068000053
:1048600000D9FC007CF1FF8300000000006500001F
:10487000006403E800640028000000250000000038
:1048800016A000000000100000001000002F000023
:10489000000001F40000100000280000FFFF458127
:1048A000FFFFFA7200000000000000000044000555
:1048B0000005BAC6004778A2000000010000000011
:1048C00000000600000000140000254D002F706D50
:1048D000000005AE000C02D0000000000000000047
:1048E0000000000000000000001B000000000000AD
:1048F000000000000000000000640000000800004C
:1049000000000000000000000000000000000000A7
:104910000000000000000000000000000000000097
:104920000000000000000000000000000000000087
:104930000000000000000000000000000000000077
:104940000000000000000000000000000000000067
:104950000000000000000000001B0000000000003C
:1049600000000000000E000E00000AC70004000056
:1049700000000032FFFFFF9C00000B2B0000000234
:104980000000000100000064FFE5000000000000DE
:104990000000000000000000000000010000000016
:1049A0000001000000000000000180000001800004
:1049B00000018000002426D3000000000000000059
:1049C000000600100096003C0000000000000000FF
:1049D00000000000000000000C0A4E68CDCF7709EF
:1049E00050166759C619CE82000000000000000072
:1049F00000000000000000000000000000000000B7
:104A000017D7840003000000000000000000000031
:104A1000C7938F9D1E1B1C190000000000000000A2
:104A20000000000000000000000000000000000086
:104A3000020318850000400000000003000000038E
:104A40000000000000000000400000000000000026
:104A50000000000000000000000000000000000056
:104A60000000000000000000000000000000000046
:104A7000000000000000000000000000677DDF7EF5
:104A800072902E554CF6E6880000000000000000F1
:104A90000000000000000000D8DCB4B8B0D8B9AB0A
:104AA000F3F8FAB3B7BB8E9EAEF132F51BF1B4B892
:104AB000B08097F1A9DFDFDFAADFDFDFF2AAC5CD83
:104AC000C7A90CC92C97F1A989264666B28999A96C
:104AD0002D557DB0B08AA896365676F1BAA3B4B2F9
:104AE00080C0B8A89711B28398BAA3F024084410E4
:104AF0006418B2B9B49883F1A329557DBAB5B1A3AE
:104B00008393F0002850F5B2B6AA839328547CF121
:104B1000B9A3829361BAA2DADEDFDB819AB9AEF57E
:104B2000606870F1DABAA2DFD9BAA2FAB9A38292A8
:104B3000DB31BAA2D9BAA2F8DF85A4D0C1BBAD835C
:104B4000C2C5C7B8A2DFDFDFBAA0DFDFDFD8D8F188
:104B5000B8AAB38DB4980D355DB2B6BAAF8C9619BC
:104B60008F9FA70E161EB49AB8AA872C547CBAA49D
:104B7000B08AB691325676B28494A4C808CDD8B81B
:104B8000B4B0F19982A82D557D98A80E161EA22CBE
:104B9000547C92A4F02C5078F184A898C4CDFCD811
:104BA0000DDBA8FC2DF3D9BAA6F8DABAA6DED8BA7E
:104BB000B2B68696A6D0F3C841DAA6C8F8D8B0B483
:104BC000B882A892F52C548898F135D9F418D8F108
:104BD000A2D0F8F9A884D9C7DFF8F883C5DADF696D
:104BE000DF83C1D8F40114F1A8824EA884F311D157
:104BF00082F5D992289788F109F41C1CD884A8F36F
:104C0000C0F9D1D99782F129F40DD8F3F9F9D1D9A6
:104C100082F4C203D8DEDF1AD8F1A2FAF9A8849888
:104C2000D9C7DFF8F8F883C7DADF69DFF883C3D8BC
:104C3000F40114F198A8822EA884F311D182F5D939
:104C400092509788F109F41CD884A8F3C0F8F9D1E0
:104C5000D99782F149F40DD8F3F9F9D1D982F4C486
:104C600003D8DEDFD8F1AD8898CCA809F9D98292B3
:104C7000A8F57CF1883ACF944A6E98DB6931DAADB9
:104C8000F2DEF9D88795A8F221D1DAA5F9F417D97F
:104C9000F1AE8ED0C0C3AE82C684C3A88595C8A528
:104CA00088F2C0F1F4010EF18E9EA8C63E56F5546E
:104CB000F18872F40115F19845856EF58E9E048891
:104CC000F142985A8E9E068869F4011CF1981E11D3
:104CD00008D0F504F11E970202983625DBF9D98534
:104CE000A5F3C1DA85A5F3DFD88595A8F309DAA580
:104CF000FAD88292A8F578F1881A849F268898219C
:104D0000DAF41DF3D8879F39D1AFD9DFDFFBF9F48F
:104D10000CF3D8FAD0F8DAF9F9D0DFD9F9D8F40BD6
:104D2000D8F3879F39D1AFD9DFDFF41DF3D8FAFC70
:104D3000A869F9F9AFD0DADEFAD9F88F9FA8F1CCDB
:104D4000F398DB45D9AFDFD0F8D8F18F9FA8CAF32D
:104D50008809DAAF8FCBF8D8F2AD978D0CD9A5DFE3
:104D6000F9BAA6F3FAF412F2D8950DD1D9BAA6F38E
:104D7000FADAA5F2C1BAA6F3DFD8F1BAB2B68696CE
:104D8000A6D0CAF349DAA6CBF8D8B0B4B8D8AD8467
:104D9000F2C0DFF18FCBC3A8B2B68696C8C1CBC331
:104DA000F3B0B48898A821DB718D9D71859521D9C8
:104DB000ADF2FAD88597A828D9F408D8F28D29DA67
:104DC000F405D9F285A4C2F2D8A88D9401D1D9F402
:104DD00011F2D88721D8F40AD8F28498A8C801D152
:104DE000D9F411D8F3A4C8BBAFD0F2DEF8F8F8F8C4
:104DF000F8F8F8F8D8F1B8F6B5B9B08A95A3DE3C62
:104E0000A3D9F8D85CA3D9F8D87CA3D9F8D8F8F9F5
:104E1000D1A5D9DFDAFAD8B18530F7D9DED8F830A4
:104E2000ADDADED8F2B48C99A32D557DA083DFDFF7
:104E3000DFB591A0F629D9FBD8A0FC29D9FAD8A0D2
:104E4000D051D9F8D8FC51D9F9D879D9FBD8A0D00C
:104E5000FC79D9FAD8A1F9F9F9F9F9A0DADFDFDF9D
:104E6000D8A1F8F8F8F8F8ACDEF8ADDE8393AC2CF6
:104E7000547CF1A8DFDFDFF69D2CDAA0DFD9FADB66
:104E80002DF8D8A850DAA0D0DED9D0F8F8F8DB5544
:104E9000F8D8A878DAA0D0DFD9D0FAF8F8F8F8DB9B
:104EA0007DF8D89CA88CF530DB38D9D0DEDFA0D0D7
:104EB000DEDFD8A848DB58D9DFD0DEA0DFD0DED8CF
:104EC000A868DB70D9DFDFA0DFDFD8F1A888902CDD
:104ED000547C98A8D05C38D1DAF2AE8CDFF9D8B027
:104EE00087A8C1C1B188A8C6F9F9DA36D8A8F9DA15
:104EF00036D8A8F9DA36D8A8F9DA36D8A8F9DA36E1
:104F0000D8F78D9DADF818DAF2AEDFD8F7ADFA30EC
:104F1000D9A4DEF9D8F2AEDEFAF983A7D9C3C5C7A2
:104F2000F1889BA77AADF7DEDFA4F8849408A797F1
:104F3000F300AEF29819A488C6A39488F632DFF283
:104F40008393DB09D9F2AADFD8D8AEF8F9D1DAF326
:104F5000A4DEA7F1889B7AD8F38494AE19F9DAAA73
:104F6000F1DFD8A881C0C3C5C7A39283F628ADDE00
:104F7000D9F8D8A350ADD9F8D8A378ADD9F8D8F8D6
:104F8000F9D1A1DADEC3C5C7D8A18194F818F2B06F
:104F900089ACC3C5C7F1D8B8B4B09786A8319B0611
:104FA0009907AB9728889BF00C201440B0B4B8F058
:104FB000A88A9A285078B79BA82951792470594417
:104FC0006938644831F1BBAB88002C547CF0B38B5A
:104FD000B8A804285078F1B088B49726A85998BB8F
:104FE000ABB38B02264666B0B8F08A9CA8295179EB
:104FF0008B2951798A2470598B2058718A446938D9
:105000008B3940688A6448318B30496088F1AC0044
:105010002C547CF08CA804285078F1889726A85945
:1050200098AC8C02264666F0899CA8295179247098
:1050300059446938644831A98809205970AB11383E
:105040004069A8193148608CA83C415C207C00F183
:1050500087981986A86E767EA999882D557DD8B136
:10506000B5B9A3DFDFDFAED0DFAAD0DEF2ABF8F94F
:10507000D9B087C4AAF1DFDFBBAFDFDFB9D8B1F1A8
:10508000A3978E60DFB084F2C8F8F9D9DED8938593
:10509000F14AB183A308B5839A0810B79F10D8F1DD
:1050A000B0BAAEB08AC2B2B68E9EF1FBD9F41DD8AA
:1050B000F9D90CF1D8F8F8AD61D9AEFBD8F40CF100
:1050C000D8F8F8AD19D9AEFBDFD8F416F1D8F8ADA1
:1050D0008D61D9F4F4ACF59C9C8DDF2BBAB6AEFA99
:1050E000F8F40BD8F1AED0F8AD51DAAEFAF8F1D849
:1050F000B9B1B6A3839C08B9B1839AB5AAC0FD30F3
:1051000083B79F10B58B93F20202D1ABDADED8F1F0
:10511000B080BAABC0C3B284C1C3D8B1B9F38BA35A
:1051200091B609B4D9ABDEB0879CB9A3DDF1B38BDE
:105130008B8B8B8BB087A3A3A3A3B28BB69BF2A35D
:10514000A3A3A3A3A3A3A3A3A3F1B087B59AA3F397
:105150009BA3A3DCBAACDFB9A3A3A3A3A3A3A3A37C
:10516000A3A3A3A3A3A3A3A3D8D8D8BBB3B7F1AADF
:10517000F9DAFFD9809AAA28B48098A720B7978730
:10518000A86688F07951F1902C870CA781976293DB
:10519000F071716085940129517990A5F1284C6CCA
:1051A000870C95188578A38390284C6C886CD8F36D
:1051B000A28200F210A8921980A2F2D926D8F18812
:1051C000A84DD948D896A83980D93CD89580A83917
:1051D000A68698D92CDA87A72CD8A8899519A980F2
:1051E000D938D8A88939A980DA3CD8A82EA839900E
:1051F000D90CD8A8953198D90CD8A809D9FFD801CD
:10520000DAFFD89539A9DA26FFD890A80D8999A890
:1052100010809821DA2ED88999A83180DA2ED8A862
:1052200086963180DA2ED8A8873180DA2ED8A882E7
:1052300092F34180F1D92ED8A882F31980F1D92EAA
:10524000D882ACF3C0A28022F1A62EA72EA9229864
:10525000A829DAACDEFFD8A2F22AF1A92E8292A800
:10526000F23180A696F1D900AC8C9C0C30ACDED02B
:10527000DEFFD88C9CACD010ACDE8092A2F24C82C7
:10528000A8F1CAF235F19688A6D900D8F1FF00003E
:10529000555555555555C53F7D6FEB0312D6D4BFB7
:1052A0005544880E55C1C93F3B8F68B52882A4BFBD
:1052B00088B20175E0EF493F09F7FD0DE13D023F7E
:1052C0004B2D8A1C273A03C0C88A599CE52A004006
:1052D00059018D1B6C06E6BF82922EB1C5B8B33F53
:1052E0004FBB610567ACDD3F182D4454FB21E93FFE
:1052F0009BF681D20B73EF3F182D4454FB21F93FED
:10530000E2652F227F2B7A3C075C143326A6813C72
:10531000BDCBF07A8807703C075C143326A6913C1D
:10532000C4EB98999999C9BF711623FEC671BCBF89
:105330006D9A74AFF2B0B3BF9AFDDE522DDEADBFF1
:105340002F6C6A2C44B4A2BF0D5555555555D53F09
:10535000FF8300922449C23F6E204CC5CD45B73F24
:10536000513DD0A0660DB13FEB0D76244B7BA93F9C
:1053700011DA22E33AAD903F000000000000000087
:1053800050726F64756374204944207265616420B3
:105390006173203020696E64696361746573206491
:1053A0006576696365206973206569746865722034
:1053B000696E636F6D70617469626C65206F7220D5
:1053C000616E204D5055333035302E0A00000000FC
:1053D000F053000800000020D8000000301600083C
:1053E000C8540008D8000020F80400004016000847
:1053F00000000000000000000000000000000000AD
:10540000000000000000000000000000000000009C
:10541000000000000000000000000000000000008C
:1054200000000000000000000AD7233C000000003C
:105430000000803F000000000000000000000000AD
:1054400000000000000000000000803F0AD723BCDD
:10545000000000000000803F00000000000000008D
:1054600000000000484600086446000800000000F4
:10547000000000000000000000000000000000002C
:10548000000000000000000000000000704600085E
:1054900001000000010000000102040608000000F5
:1054A00000010203040102030406070809000000CA
:1054B00000A24A04000000000000000001020304F2
:0854C0000607080900000000C6
:04000005080000ED02
:00000001FF
