:020000040800F2
:10000000F009002001010008090100080B010008A7
:100010000D0100080F010008110100080000000098
:1000200000000000000000000000000013010008B4
:100030001501000800000000170100081901000860
:100040001B0100081B0100081B0100081B01000820
:100050001B0100081B0100081B0100081B01000810
:100060001B0100081B0100081B0100081B01000800
:100070001B0100081B0100081B0100081B010008F0
:100080001B0100081B0100081B0100081B010008E0
:100090001B0100081B0100081B0100081B010008D0
:1000A0001B0100081B0100081B0100081B010008C0
:1000B0001B010008E1210008000000001B010008EE
:1000C0001B01000800000000000000001B010008E8
:1000D000000000008D2600081B0100080000000041
:1000E0001B0100081B0100081B010008DFF80CD0F1
:1000F00000F0DEFC00480047413A0008F00900200B
:100100000648804706480047FEE7FEE7FEE7FEE7B1
:10011000FEE7FEE7FEE7FEE7FEE7FEE7B1200008A8
:10012000ED000008D2B201E000F8012B491EFBD21D
:1001300070470022F6E710B513460A4604461946F2
:10014000FFF7F0FF204610BD421C10F8011B0029EC
:10015000FBD1801A7047F0B480EA0102D40F42004C
:10016000B2EB410F02D20246084611464A0042D085
:10017000C30DDDB2C1F3C752AD1A202D35DAC1F37C
:10018000160141F4000204B15242C5F1200602FA00
:1001900006F12A411044B3EBD05F23D0C4B1012D46
:1001A000A0EBC35009DCF0BC4FF0004202EAC3529E
:1001B000DBB200F5000000F0A8BB400000F1807049
:1001C00000EBC350A0F1807040EAD170490009E013
:1001D000490841EAC071A0EBC35000F50000400897
:1001E00000EBC350F0BC00F087BB6142012202EB80
:1001F0004101001BF6E7F0BC704781F00041AAE71F
:1002000080F00040A7E780EA010210B502F0004349
:10021000400022D04A001FD0010E01EB1261C0F352
:100220005600C2F3560240F4000042F40002A0FB64
:10023000022000047F39140400D0401C50EA124010
:1002400001D44000491EC2B20C0604EBD010401C81
:100250004008802A02D003E0002010BD20F00100F9
:10026000002900DA0020184310BD30B480EA0102F2
:1002700002F0004530F0004221F0004013D090B170
:10028000C30DD40DC2F31601C0F31600E41A41F4F5
:10029000000140F400027D34914201D3641C00E06F
:1002A0004900002C02DA30BC002070474FF40000F7
:1002B0000023914201D3891A034340084FEA4101C8
:1002C000F7D151B1914202D14FF0004105E002D285
:1002D0004FF0010101E06FF0010103EBC45028442D
:1002E00030BC00F009BB2DE9FE4F804681EA0300D7
:1002F000C00F0C46009021F0004123F00045B8EB00
:100300000200A94105D24046214690461C460B46B4
:10031000024623F00040104347D0270DC7F30A00E0
:10032000C3F30A510290401A019040286BDAC3F3DC
:10033000130040F4801B0098924620B10023D2EBBA
:10034000030A63EB0B0B01985946C0F1400250467B
:1003500000F053FA06460D4650465946019A00F001
:100360006BFA10EB08006141002487EA115284EA1D
:10037000E7731A4340D0009A62B3019A012A4FEA08
:10038000075215DC001B61EB02014FF0004202EA4C
:100390000752CDE90042001C41F5801132462B4640
:1003A00000F0F0FA03B0BDE8F08F40462146F9E7CF
:1003B000001B61EB0201001C41F5801300185B413A
:1003C0002018A2F5001747EB030140EAD570B619D3
:1003D0006D4111E06D084FEA360645EAC0754FEAF7
:1003E0000752001B61EB0201001C41F58011490816
:1003F0004FEA30000019514132462B4603B0BDE8A8
:10040000F04F00F0B0BA0098012240000023D0EB7A
:10041000020263EBE073009821464FEAE074B8EB08
:10042000000061EB0401E9E783F000435BE781F042
:10043000004158E72DE9FE4F81EA030404F000442F
:1004400021F0004100944FF0000B23F0004350EAEC
:1004500001045ED052EA03045BD0C3F30A54C1F333
:100460000A552C44A4F2F3340194A0FB0254C1F3C6
:10047000130141F48011C3F3130343F4801301FB10
:10048000024400FB034E840A970A44EA815447EA77
:100490008357A4FB076802958D0A05FB07854FEA81
:1004A000932C04FB0C542705029D4FEA065847EA9B
:1004B0001637B5EB08056EEB070C870E920E47EA70
:1004C000811742EA8312A7FB0201B6EB0B0164EB32
:1004D00000042B0D43EA0C335E1844EB1C50DA4643
:1004E0005146E7FB0201C5F313044FEA0B3343EA1D
:1004F00014534FEA0432019C43EA0603A4F10C04AE
:100500000294009CCDE900B400F03CFA03B0BDE8D1
:10051000F08F00200146F9E72DE9F04D81EA030450
:1005200004F0004B21F0004514464FF0000A23F080
:10053000004150EA050220D054EA01021DD0C5F363
:100540000A570246C5F31303C1F31300C1F30A5659
:1005500040F4801543F48013A7EB0608101BD64621
:1005600008F2FD3873EB050002D308F1010801E041
:1005700092185B41B8F1000F03DA00200146BDE894
:10058000F08D00204FF48011064684460EE0171BC4
:1005900073EB050705D3121B63EB050306434CEA17
:1005A000010C49084FEA300092185B4150EA0107FC
:1005B000EDD152EA030012D082EA040083EA050179
:1005C000084305D0101BAB4106D20122002306E0F0
:1005D00000224FF0004302E06FF0010253101AEBCB
:1005E00006004CEB085110EB0A0041EB0B01BDE893
:1005F000F04D00F0B8B9C10F80EAE0700844CA07B6
:100600009623002100F081B90EB5C10F80EAE07099
:100610000844CA07002140F233438DE80E000A4621
:100620000B4600F0AFF903B000BD00F0004220F02F
:100630000040C10DC0F3160040F400007F2901DA2C
:1006400000207047962903DCC1F19601C84001E003
:1006500096398840002AF4D04042704770B5C1F303
:100660000A5201F000450024C1F3130140F2FF33A8
:1006700041F480119A4201DA002070BD40F2334308
:100680009A42A2F2334203DC524200F0C5F800E085
:1006900090402C43F1D0404270BD00F0004230F059
:1006A00000400AD0C10D01F56071C0F3160042EAA6
:1006B0000151C208400711437047002001467047AE
:1006C00030B5041E71F1000404DB4FF000444042D9
:1006D00064EB0101141E73F1000405DB1C464FF0AE
:1006E0000043524263EB04038B4208BF824230BD99
:1006F00030B5041E71F1000404DB4FF000444042A9
:1007000064EB0101141E73F1000405DB1C464FF07D
:100710000043524263EB0403994208BF904230BD4C
:1007200001F0004330B421F0004150EA010206D04C
:100730000A0DA2F56072C1F31301002A02DC30BC7D
:1007400000207047440F44EAC104C100E01830BCE7
:1007500000EBC25000F0D0B8002801DBC0F100402F
:10076000002901DBC1F100418142704730B50B46E1
:10077000014600202022012409E021FA02F59D42D1
:1007800005D303FA02F5491B04FA02F52844151EA5
:10079000A2F10102F1DC30BD2DE9F05F0546002039
:1007A00092469B4688460646814640241BE02846E2
:1007B00041464746224600F02FF853465A46C01A93
:1007C000914110D311461846224600F016F82D1A12
:1007D00067EB01084F4622460120002100F00DF88A
:1007E00017EB00094E41201EA4F10104DFDC48464E
:1007F00031462A464346BDE8F09F202A04DB203AD2
:1008000000FA02F1002070479140C2F1200320FA63
:1008100003F3194390407047202A04DB203A21FA61
:1008200002F00021704721FA02F3D040C2F1200209
:100830009140084319467047202A06DBCB17203A1F
:1008400041FA02F043EAE07306E041FA02F3D040D5
:10085000C2F1200291400843194670470FB40023AB
:1008600000B589B00CA900910B996FF00042CB60E4
:100870001E4B06931E4B07930423CDE901321D4AFC
:10088000089202466B46002000F0AAF909B05DF814
:1008900014FB70B586B006464FF0FF300091CDE9ED
:1008A0000101002015460C4604903246694604A812
:1008B000FFF7D4FF03460498211825B108B10A4672
:1008C00000E022462A6000280DD0002B02DD0098AF
:1008D000884208D0081B0094CDE9010432466946DD
:1008E00004A8FFF7BBFF06B070BD0000190E00089A
:1008F000370E0008D50A00080029A8BF7047401C21
:10090000490008BF20F00100704710B4B0FA80FC25
:1009100000FA0CF050EA010404BF10BC704749B162
:10092000CCF1200421FA04F411FA0CF118BF0121D2
:1009300021430843A3EB0C01CB1D4FEA00614FEAB2
:10094000102042BF002010BC704700EBC350104481
:100950000029A4BF10BC7047401C490008BF20F00C
:10096000010010BC704710B5141E73F1000408DAC2
:10097000401C41F1000192185B411A4301D120F063
:10098000010010BD2DE9F04D92469B4611B1B1FA20
:1009900081F202E0B0FA80F220329046FFF72DFF9C
:1009A00004460F4640EA0A0041EA0B0153465A4604
:1009B000084313D0114653EA010019D0C8F1400290
:1009C0005046FFF729FF05460E4650465946424617
:1009D000FFF713FF084305D0012004E02046394605
:1009E000BDE8F08D0020054346EAE0762C4337430E
:1009F0000A986305E40AA0EB08000022FD0A44EA15
:100A000047540A3002D500200146E9E701051019D4
:100A10006941DDE9084500196941BDE8F04DA2E7EB
:100A2000C1F30A52C1F3130140F2FF3341F48011C4
:100A30009A4202DA00200146704740F233439A425C
:100A4000A2F2334202DC5242FFF7E6BEFFF7D5BE08
:100A500070B5044601F000450020054304D14FF075
:100A60000045644265EB010103F00045284305D1D0
:100A700018464FF00043524263EB0003101B73EB28
:100A8000010002D24FF0004009E082EA040283EA4A
:100A900001034FF000501A4301D14FF0C0404FEA1C
:100AA0002062EFF3008162F31F6181F3008870BD63
:100AB000064C074D06E0E06840F0010394E80700AB
:100AC00098471034AC42F6D3FFF714FBA850000847
:100AD000C8500008C0B24FF4F05100F0D5B9000082
:100AE0002DE9FF4F087881B09946FF2805D0491CB1
:100AF0002D2804D00024002308E000230BE001246B
:100B0000F9E703EB830300EB4303491C0878FF2854
:100B1000F7D104B15B4200200090147801462D2CDF
:100B200001D02B2C04D1521C2D2C12D00024009467
:100B300000251678FF2E0ED00A24A0FB04C801FB66
:100B40000481002700FB0711521C16EB0C006941C1
:100B5000EFE70124EBE7994450EA01020ED00024AC
:100B6000AA4D2646DFF8A88200F0A2F982468B46FD
:100B7000B9F1000009DAC9F100071BE00198002172
:100B8000C0E9001105B0BDE8F08F074612E0F80794
:100B900007D022462B4630464146FFF74BFC06461F
:100BA000884622462B4610461946FFF743FC04466A
:100BB0000D467F10002FEAD1B9F1000F32464346AF
:100BC0005046594602DAFFF7A7FC01E0FFF732FC76
:100BD000009A0AB181F00041019AC2E90001D1E70F
:100BE0002DE9FF4F1F468DB0D7E901464FF0FF3882
:100BF0002E2045464FF000090B90B9696D1C0E98E8
:100C00008847396A824688470028F6D1BAF1FF3F03
:100C10000AD024F4D064002E11DDBAF12B0F08D0D5
:100C2000BAF12D0F0BD102E0404611B0ABE744F40E
:100C30008064B9696D1C0E9888478246761E6946A5
:100C4000600501D52D2000E02B208DF8000001F17A
:100C5000010B0DF1200809E0B9696D1C0E98884759
:100C600082460F9844F40074761E0560002E02DD63
:100C7000BAF1300FF0D00B998A453ED144F0800490
:100C800006E00F99681CA9F1010944F4007408609A
:100C9000B9696D1C761E0E98884782463028F0D0C0
:100CA0002BE00B998A4505D1200603D444F080043B
:100CB000761E18E0504601F081FF08B30DF11301D4
:100CC000761E44F400748B4508D2AAF130000BF86C
:100CD000010B200607D5A9F1010003E0200602D48C
:100CE00009F101008146A00502D50F99681C086032
:100CF000B9696D1C0E9888478246002ED1DC53E0FE
:100D0000002E51DDBAF1650F02D0BAF1450F4BD17B
:100D1000A00549D5B9696D1C24F44074761E0E985F
:100D200088478246002E0CDD2B2804D0BAF12D0F07
:100D300007D144F48074B9696D1C0E9888478246C7
:100D4000761EE00501D52D2100E02B2108F8011BBE
:100D5000CDF82C8021E00DF12901761E44F40074B9
:100D600088450CD2AAF1300010F0FF0088F800008E
:100D700002D10B99884509D908F1010806E0E00580
:100D800001D5244801E042F20F708146B9696D1C1B
:100D90000E98884782460F980560002E04DD504665
:100DA00001F00CFF0028D6D1F9690E988847FF2082
:100DB0008BF8000088F800000020069007904B4652
:100DC0006A4608A906A8FFF78BFEA00502D46FF0BB
:100DD00001002AE714F0240F0AD0E00714D1DDE95E
:100DE00006123868031D3B600068C0E900120BE082
:100DF000DDE90601FFF794FC0146E00704D13868FD
:100E0000021D3A600068016028460EE70000244099
:100E10000000F03FF1D8FFFF426842B1016811F8CD
:100E2000013B23B1521EC0E9001218467047012150
:100E3000C160881E704742685AB1C368016843B9EF
:100E400083688B4205D0491E521CC0E90012002065
:100E500070474FF0FF30704770B521F000430343F7
:100E60000CD0C1F30A550024D5EB040564EB040350
:100E7000D617AD1AB34102DB0020014670BD201821
:100E800041EB025170BD00007F2801D9002208E02B
:100E9000064A02EB5002C007127800D1120902F094
:100EA0000F02012090400840704700006850000881
:100EB0000EB540F2334202920022CDE900221346E1
:100EC000FFF760FD03B000BD2DE9F04102460025AB
:100ED0000026002000230024002791F803C00CF016
:100EE0000F0591F803C00CF0100CBCF1000F03D0FB
:100EF00091F802C04CEA050591F800C0BCF1000F62
:100F000031D0146800202BE04FF0010C0CFA00F3F4
:100F1000B1F800C00CEA03069E4220D183004FF0D6
:100F20000F0C0CFA03F7BC4305FA03FC4CEA04046B
:100F300091F803C0BCF1280F06D14FF0010C0CFA58
:100F400000FCC2F814C00AE091F803C0BCF1480FDD
:100F500005D14FF0010C0CFA00FCC2F810C0401C87
:100F60000828D1D31460B1F800C0BCF1FF0F34DD04
:100F7000546800202EE000F1080C4FF0010808FA38
:100F80000CF3B1F800C00CEA03069E4221D18300A5
:100F90004FF00F0C0CFA03F7BC4305FA03FC4CEAC4
:100FA000040491F803C0BCF1280F05D100F1080C2E
:100FB00008FA0CF8C2F8148091F803C0BCF1480F8D
:100FC00007D100F1080C4FF0010808FA0CF8C2F83C
:100FD0001080401C0828CED35460BDE8F0814161E8
:100FE00070470161704700002DE9F84F06460F4633
:100FF00092469946DDF828B04FF0000800240025FD
:10100000AAF1200000F0FF087F2E02DD0026B81CA8
:10101000C7B2B9F1100F30D100242BE0BBF1000FA3
:1010200005D004EB08103249085C009006E004EBA0
:1010300008102F49085CC043C0B20090002515E09D
:10104000802028410099084038B13A19D1B272196C
:10105000D0B2012200F060FC06E03A19D1B2721958
:10106000D0B2002200F058FC681CC5B2082DE7DBA6
:10107000601CC4B2102CD1DB35E0B9F1080F30D1BF
:1010800000242BE0BBF1000F05D01A4800EBC8008C
:10109000005D009006E0174800EBC800005DC0430B
:1010A000C0B20090002515E080202841009908403A
:1010B00038B13A19D1B27219D0B2012200F02CFC29
:1010C00006E03A19D1B27219D0B2002200F024FC25
:1010D000681CC5B2082DE7DB601CC4B2082CD1DB4C
:1010E00001E0BDE8F88F00F051FB00BFF9E7000018
:1010F000EC420008F43F00082DE9F04F8BB00646A3
:10110000894614461D46DDE914AB2A460CA102A807
:1011100001F008FC2046FFF7C0FA07463A460B46A6
:1011200002A904A801F0FEFB534604AA4946304632
:10113000CDF800B000F008F80BB0BDE8F08F00006B
:101140002525302E256466002DE9F84F0546894691
:1011500016461C46DDF828A00027102C05D1204695
:1011600004EBD071C1F347080BE0082C07D12046EF
:1011700004EBD0714910891C01F0FF0801E0BDE8C3
:10118000F88F13E0CDF800A0F25D234649462846CB
:10119000FFF72AFF05EB0800C5B2782D04DD002516
:1011A00009EB040000F0FF09781CC7B2F05D0028CD
:1011B000E8D100BFE3E72DE9FC4104460D461646A1
:1011C0006B4606223B21682000F0E4F90746BFB9D0
:1011D0009DF801009DF8001040EA012000B2208037
:1011E0009DF803009DF8021040EA012000B228801B
:1011F0009DF805009DF8041040EA012000B23080FF
:101200003846BDE8FC812DE9FC4104460D461646F2
:101210006B4606224321682000F0BCF90746BFB99F
:101220009DF801009DF8001040EA012000B22080E6
:101230009DF803009DF8021040EA012000B22880CA
:101240009DF805009DF8041040EA012000B23080AE
:101250003846BDE8FC81000010B500200E4908604A
:101260000E48006820F070400C490860084600688D
:1012700040F04050086000200949C1F89C0100F08E
:1012800011F801200449086000F00CF8002004491E
:10129000C1F8980110BD000098812142000C014066
:1012A0000080214210B5022002F094FA10BD000027
:1012B00008B50121082000F01BFDC020ADF800009A
:1012C00010208DF8030003208DF8020069460248C3
:1012D000FFF7FAFD08BD0000000C014010B500202A
:1012E0000E4908600E48006820F070400C49086004
:1012F0000846006840F04050086001200949C1F8E4
:101300009C01FFF7CFFF012004490860FFF7CAFFE7
:1013100000200449C1F8980110BD000098812142C5
:10132000000C01400080214270B50546002416489B
:10133000006820F07040144908600846006840F0DA
:1013400000400860002614E0002010490860FFF704
:10135000A9FF01200E49C1F898016006040E0B4850
:101360007C38006808B1601CC4B2FFF79BFF701C9A
:10137000C6B2082EE8DB15B9FFF7B0FF01E0FFF7B2
:101380006BFF204670BD0000000C01409881214297
:101390000080214270B504461248006820F0704079
:1013A000104908600846006840F04050086000207E
:1013B0000D490860002512E0E0090B49091D08608D
:1013C0006006040E01200949C1F89801FFF76AFF81
:1013D000002005490860FFF765FF681CC5B2082DAD
:1013E000EADB70BD000C014098812142008021425F
:1013F00010B50E48006820F070400C49086008469F
:10140000006840F04050086001200949086009491F
:10141000C1F89801FFF746FF002005490860FFF773
:1014200041FF00200349C1F8980110BD000C0140A4
:101430009C8121420080214210B50E48006820F0B6
:1014400070400C4908600846006840F04050086051
:101450000020094908600949C1F89C01FFF722FFF3
:101460000120054908600549C1F89C01FFF71AFFF2
:1014700010BD0000000C01409881214200802142F3
:1014800010B500241448006820F07040124908602C
:101490000846006840F00040086001200F490860DD
:1014A000FFF700FF01200E49C1F89801FFF7FAFE8F
:1014B00007E0601CC4B2FA2C03DDFFF7BDFF01207A
:1014C00010BD0648803800680028F2D10349091F82
:1014D000086000BFF4E70000000C01409C8121423D
:1014E0000080214210B5FFF7E3FE80216B2000F061
:1014F000D5F8642002F048F900216B2000F0CEF806
:10150000002000F089F8012000F07EF84FF47A7096
:1015100000F0A7F80021382000F0C0F800216A2070
:1015200000F0BCF80021232000F0B8F8752000F08E
:1015300014F80446682C0CD109216B2000F0AEF899
:1015400000216C2000F0AAF84FF47A7000F089F8BE
:1015500001E0012010BD0020FCE770B50446FFF754
:1015600047FFD020FFF716FFFFF78AFF2046FFF75F
:1015700011FFFFF785FFFFF73BFFD120FFF70AFFC1
:10158000FFF77EFF0020FFF7CFFE0546FFF754FF71
:10159000284670BD2DE9F04106460F4614461D460B
:1015A000FFF726FF002141EA4601C8B2FFF7F2FE2D
:1015B000FFF766FF20B1FFF73FFF0120BDE8F08194
:1015C0003846FFF7E7FEFFF75BFFFFF711FF01214A
:1015D00001EB4601C8B2FFF7DDFEFFF751FF0DE05A
:1015E000012C04D10020FFF79FFE287003E00120AA
:1015F000FFF79AFE2870601EC4B26D1C002CEFD15C
:10160000FFF71AFF0020D9E710B50446E006010EE7
:101610001C2000F043F810BD10B50446E006010E92
:101620001B2000F03BF810BD70B504460025BC2C13
:1016300001DB012510E0622C01DB02250CE02A2CE5
:1016400001DB032508E0142C01DB042504E00A2C4F
:1016500001DB052500E0062529461A2000F01EF8CA
:1016600070BD70B50446B4F57A7F01DD4FF47A742D
:10167000042C00DA04244FF47A7090FBF4F0401E3E
:10168000C5B22946192000F009F80546264604EBA4
:10169000D671C1F34F00FFF7C7FF70BD70B50546A7
:1016A0000C46FFF7A5FED020FFF774FEFFF7E8FE1B
:1016B00018B1FFF7C1FE012070BD2846FFF76AFE92
:1016C000FFF7DEFE2046FFF765FEFFF7D9FE18B1F3
:1016D000FFF7B2FE0120EFE7FFF7AEFE0020EBE7D9
:1016E00070B5002100230F22C47804B3154C246880
:1016F00004F4E064C4F5E064210AC1F10403CA40C3
:10170000447804FA03F184781440214309010E4C13
:101710000678A155047804F01F050124AC40057833
:101720006D11AD0005F1E025C5F8004109E0047830
:1017300004F01F050124AC40044D0678761145F8ED
:10174000264070BD0CED00E000E400E080E100E028
:1017500002490143024A1160704700000000FA0587
:101760000CED00E010B5044634B1FF224FF4806167
:101770000548FEF7D7FC04E04FF480610248FEF70D
:10178000D8FC00F003F810BDEC01002070B5002477
:101790001BE004F1B000002100F0FEF80021084633
:1017A00000F0FAF80021102000F0F6F8002508E01B
:1017B00005EBC411064A505C012100F0EDF8681CED
:1017C000C5B2802DF4DB601CC4B2082CE1DB70BD17
:1017D000EC01002010B500F005FB00F06BF8C8200C
:1017E00001F0D2FF00F082F80021AE2000F0D4F822
:1017F0000021084600F0D0F80021102000F0CCF8BD
:101800000021402000F0C8F80021B02000F0C4F80A
:101810000021812000F0C0F80021FF2000F0BCF87A
:101820000021A12000F0B8F80021A62000F0B4F8B3
:101830000021A82000F0B0F800213F2000F0ACF813
:101840000021C82000F0A8F80021D32000F0A4F85F
:101850000021084600F0A0F80021D52000F09CF8F7
:101860000021802000F098F80021D92000F094F8A1
:101870000021F12000F090F80021DA2000F08CF82F
:101880000021122000F088F80021DB2000F084F80D
:101890000021302000F080F800218D2000F07CF83D
:1018A0000021142000F078F80021AF2000F074F837
:1018B00010BD000008B50121082000F019FA40F61B
:1018C0000240ADF8000010208DF8030003208DF8D1
:1018D000020069460448FFF7F7FA40F60241024861
:1018E000FFF77FFB08BD0000000C014010B502218E
:1018F0000848FFF776FB642001F046FF0221054807
:10190000FFF76DFB642001F03FFF02210148FFF764
:1019100068FB10BD000C0140F0B503461446E4B16D
:10192000CD1701EB5575ED1003EBC515194E755D1F
:101930000A46CE1701EB5676F610A1EBC607012634
:10194000BE40F6B235430846CE1701EB5676F61088
:1019500003EBC6160F4FBD551AE0CD1701EB5575B9
:10196000ED1003EBC5150B4E755D0A46CE1701EB66
:101970005676F610A1EBC6070126BE40B5430846D1
:10198000CE1701EB5676F61003EBC616014FBD5588
:10199000F0BD0000EC01002070B504460D462DB1ED
:1019A0004FF480610B48FFF71CFB04E04FF48061AB
:1019B0000848FFF714FB4FF400610648FFF70FFBE0
:1019C000E1B2054800F086FA4FF400610148FFF7E4
:1019D00008FB70BD000C0140003001402DE9F84FBC
:1019E000974800689749086095484068964908609C
:1019F000964997480068FEF7AEFB04469248016896
:101A00002046FEF7FAFB9349086093480068FEF70A
:101A100044FE06464FF06632904BFEF70BFD04463F
:101A20000D46894801688B480068FEF794FB0090DA
:101A3000FEF733FE06464FF03332894BFEF7FAFCD1
:101A4000804622462B46FEF74EFC8246FEF768FE95
:101A500084490860084600687F4908608148016839
:101A600081480068FEF777FB7F4908607F4800687F
:101A70007F490860754976480068FEF76CFB0646AA
:101A8000FEF70BFE21F0004104460022794BFEF7E1
:101A900017FE04D20020744908606F49086000F006
:101AA000CFFD07467448016871480068FEF7ABFB3C
:101AB0008046724801686C480068FEF7A4FB8146C6
:101AC0006F48016863480068FEF79DFB82464946FF
:101AD000FEF741FB06464146FEF73DFB054639460B
:101AE000FEF78BFB0446FEF7A0FD6649086000F098
:101AF000A7FD0746604801685D480068FEF783FB64
:101B000080465E48016858480068FEF77CFB8146C5
:101B10005B4801684F480068FEF775FB82464946FE
:101B2000FEF719FB06464146FEF715FB054639460A
:101B3000FEF711FB0446FEF778FD53490860514853
:101B40000068FEF761FD804642460B4600204F4983
:101B500001F087FE064632460B4600204C4901F054
:101B60005FFE0446FEF77AFD464908604648006875
:101B7000FEF74AFD804642460B460020434901F0ED
:101B800070FE064632460B460020414901F048FEF1
:101B90000446FEF763FD3C4908602C492C48006868
:101BA000FEF7D9FA0646FEF778FD21F0004104461B
:101BB0000022384BFEF79CFD05D33248006880B9FF
:101BC0003148006868B90021084600F065F8002136
:101BD000084600F06FF80020234908601E4908609D
:101BE0002BE028480068002806DD2649098888B2CD
:101BF000002100F051F80AE022480068002806DAC7
:101C000020480088404281B2002000F045F81E487C
:101C10000068002806DD1C49098888B2002100F010
:101C200049F80AE018480068002806DA16480088D3
:101C3000404281B2002000F03DF8BDE8F88F00007E
:101C40000C000020980000209C0000200000404074
:101C50002800002084000020A00000206666E63FE7
:101C60003333D33FA4000020880000203000002040
:101C70008C0000200000F03F7C0000207800002055
:101C800074000020900000209400002000408F404D
:101C900000408FC000003E4070B504460D4621460E
:101CA0004FF0804000F071FC29464FF0804000F07A
:101CB0006EFC70BD70B504460D4621464FF0804065
:101CC00000F067FC29464FF0804000F064FC70BDD6
:101CD00029B1064AD2690243044BDA6104E0034A9F
:101CE000D2698243014BDA61704700000010024064
:101CF00029B1064A92690243044B9A6104E0034AFF
:101D000092698243014B9A617047000000100240C3
:101D100030B500210022002400232D4D6D6805F010
:101D20000C0121B1042905D0082923D105E0294D52
:101D3000056022E0274D05601FE0254D6D6805F424
:101D40007012234D6D6805F48034022505EB924234
:101D50001CB9214D554305600BE01D4D6D6805F420
:101D600000351DB11C4D5543056002E0194D55432A
:101D7000056002E0174D056000BF00BF144D6D689F
:101D800005F0F0010909154D6B5C0568DD40456003
:101D90000F4D6D6805F4E061090A104D6B5C4568F4
:101DA000DD4085600A4D6D6805F46051C90A0B4D30
:101DB0006B5C4568DD40C560054D6D6805F44041CC
:101DC000890B074D6B5CC568B5FBF3F5056130BD4C
:101DD0000010024000127A0000093D00A800002017
:101DE000B800002000B587B001210520FFF780FF73
:101DF000A020ADF8040003208DF8060018208DF80F
:101E0000070001A91C48FFF75FF84020ADF8040067
:101E100048208DF8070003208DF8060001A9164818
:101E2000FFF752F801210803FFF762FF0020ADF829
:101E300008004FF48270ADF80A000020ADF80C00E5
:101E40000220ADF80E000120ADF810004002ADF800
:101E500012000020ADF81400ADF816000720ADF810
:101E6000180002A9054800F017F80121034800F006
:101E700007F807B000BD0000000801400030014035
:101E800021B1028842F04002028004E002884FF64D
:101E9000BF731A400280704710B50022028802F416
:101EA00041520B884C8823438C882343CC8823439E
:101EB0000C8923434C8923438C892343CC892343B6
:101EC0001A430280838B4FF2FF74234083830B8A73
:101ED000038210BD024600BF108900F002000028F6
:101EE000FAD0918100BF108900F001000028FAD0DB
:101EF0009089C0B2704710B500F002F810BD000024
:101F00000CB50020019000903348006840F4803008
:101F10003149086000BF3048006800F4003000908C
:101F20000198401C0190009818B90198B0F5A06F75
:101F3000F1D12948006800F4003010B10120009070
:101F400001E0002000900098012843D12348006858
:101F500040F01000214908600846006820F00300A6
:101F600008600846006840F0020008601A484068AF
:101F7000194948600846406848600846406840F48F
:101F8000806048600846406820F47C10486008463D
:101F9000406840F4E81048600846006840F08070EF
:101FA000086000BF0C48006800F000700028F9D0FD
:101FB0000948406820F00300074948600846406827
:101FC00040F00200486000BF0348406800F00C0089
:101FD0000828F9D10CBD000000100240002002408A
:101FE0002DE9FE4F05460E464FF00009CA46002077
:101FF00000900190029000243EE0285D4B2839D0EB
:10200000285D3A2836D0285D702833D0285D48B343
:10201000285D69282ED0285D64282BD0285D74287F
:1020200028D0285D6D2825D0285D582822D0285D2D
:1020300059281FD0285D2C2802D0285D232812D1D2
:102040000021684601F03CFE0746FEF769FB514659
:102050004A1C02F0FF0A46F821000020009001907F
:102060000290814606E0285D0DF8090009F10100A3
:1020700000F0FF09601CC4B22846FEF765F8A042D4
:10208000BBD8BDE8FE8F042808D14FF0E0210969D4
:1020900041F004014FF0E022116107E04FF0E02130
:1020A000096921F004014FF0E0221161704700003E
:1020B00010B51348006840F0010011490860084657
:1020C0004068104908400E494860084600680E49BB
:1020D00008400B4908600846006820F4802008602A
:1020E0000846406820F4FE0048604FF41F008860F6
:1020F000FFF701FF4FF000600449086010BD0000C9
:10210000001002400000FFF8FFFFF6FE08ED00E0BF
:1021100030B589B005460C4601210846FFF7D8FDC9
:1021200001210520FFF7E4FD0F20ADF82000182065
:102130008DF8230003208DF8220008A92748FEF718
:10214000C3FEADF81850ADF814400020ADF81A00E9
:10215000ADF8160005A94FF0804000F01FFA60208E
:10216000ADF804000120ADF806000020ADF80C0029
:1021700001A94FF0804000F0ADF801A94FF0804078
:1021800000F0FEF801A94FF0804000F059F901A9D4
:102190004FF0804000F0AEF90821C80600F0E6F8E4
:1021A0000821C80600F03EF90821C80600F098F999
:1021B0000821C80600F0DCF90121880700F054F876
:1021C0000121880700F05FF800210846FFF764FD51
:1021D00000210846FFF76EFD09B030BD0008014040
:1021E00010B50121064800F05AF838B10121044821
:1021F00000F046F801F0C6FDFFF7F0FB10BD00004F
:10220000000400407FB505460C4601210220FFF77F
:102210005FFDADF80850ADF804400020ADF80A00AD
:10222000ADF8060001A90F4800F0B8F901221146E7
:102230000C4800F045F84FF4A060FFF789FA1D2024
:102240008DF8000001208DF803008DF801008DF855
:1022500002006846FFF744FA0121024800F013F833
:102260007FBD00000004004021B1028842F08002DE
:10227000028004E002884FF67F731A4002807047A4
:10228000CA430282704721B1028842F001020280F3
:1022900004E002884FF6FE731A400280704730B5A2
:1022A0000246002000230024158A05EA01039589CF
:1022B00005EA010413B10CB1012000E0002030BD9B
:1022C0001AB183890B43838102E083898B43838125
:1022D0007047000070B5002400220023058C4FF6E3
:1022E000FE7635400584028C8388048B4FF68F750B
:1022F0002C40B51E2C400D882C43751E2A400D899C
:102300002A434D882A43144DA8420BD0134DA842AE
:1023100008D0134DA84205D0124DA84202D0124D4C
:10232000A84213D14FF6F7752A404D892A434FF63C
:10233000FB752A408D882A434FF6FF652B404FF6E8
:10234000FF552B408D892B43CD892B4383800483FC
:10235000CD888586028470BD002C01400034014088
:102360000040014000440140004801400A4600216D
:10237000018B4FF6F773194011430183704700003A
:1023800070B5002400220023058C4FF6EF7635400F
:102390000584028C8388048B48F6FF752C404FF629
:1023A000FF452C400D884FF6FF7606EA05252C43A5
:1023B0004FF6DF752A400D8906EA05152A434D8838
:1023C00006EA05152A43154DA84202D0144DA8422D
:1023D0001DD14FF67F752A404D894FF6FF7606EAEC
:1023E00005152A434FF6BF752A408D8806EA051564
:1023F0002A434FF6FF352B404FF2FF752B408D8956
:1024000006EA85052B43CD8906EA85052B438380A3
:102410000483CD880587028470BD0000002C014034
:10242000003401400A460021018B4FF2FF7319402E
:102430004FF6FF7303EA022319430183704700003C
:1024400070B5002400220023058C4FF6FF6635404E
:102450000584028C8388848B4FF68F752C404FF651
:10246000FC752C400D882C434FF6FF552A400D89F2
:102470004FF6FF7606EA05252A434D8806EA05252C
:102480002A43154DA84202D0144DA8421DD14FF247
:10249000FF752A404D894FF6FF7606EA05252A4347
:1024A0004FF6FF352A408D8806EA05252A434EF669
:1024B000FF752B404DF6FF752B408D8906EA0515FB
:1024C0002B43CD8906EA05152B4383808483CD8871
:1024D0008587028470BD0000002C0140003401405B
:1024E0000A460021818B4FF6F7731940114381830F
:1024F0007047000070B5002200230024058C4EF6C2
:10250000FF7635400584038C8488828B48F6FF75FE
:102510002A404FF6FF452A400D884FF6FF7606EA1F
:1025200005252A434DF6FF752B400D8906EA053532
:102530002B434D8806EA05352B430B4DA84202D0AC
:102540000A4DA84208D14BF6FF752C408D894FF6F5
:10255000FF7606EA85152C4384808283CD88A0F817
:102560004050038470BD0000002C01400034014045
:102570000A460021818B4FF2FF7319404FF6FF731B
:1025800003EA0223194381837047818670470187DC
:10259000704781877047A0F840107047002202887A
:1025A0001D4B98420ED01D4B98420BD0B0F1804F7E
:1025B00008D01B4B984205D01A4B984202D01A4BB8
:1025C000984204D14FF68F731A404B881A43174B29
:1025D000984207D0164B984204D04FF6FF431A405A
:1025E000CB881A4302808B8883850B8803850A4B2E
:1025F00098420BD0094B984208D00E4B984205D018
:102600000D4B984202D00D4B984201D10B7A0386B4
:102610000123838270470000002C014000340140F8
:102620000004004000080040000C00400010004082
:1026300000140040004001400044014000480140B7
:1026400070B500210D480068FEF786F812D10C48DD
:10265000B0F90000FDF7CFFF06460A48006880F099
:10266000004531462846FDF7CEFD04460649FDF7F4
:10267000FCFD70BD01480068FBE7000098000020E9
:102680001E000020800000200000C84210B540F26B
:102690002551244800F060F8002841D0214800F07E
:1026A00017F9C4B22049204600F018F938B11F4983
:1026B0001D48FFF795FC1C491DA000F023F91E489A
:1026C000008800F4004058BB1B48008800F480409C
:1026D00060B10A2C03D000201749088020E016487A
:1026E000008840F400401449088019E00D2C06D100
:1026F0001148008840F480400F49088010E00E48DF
:102700000088C0F30D000D490C540B480088401C94
:102710000949088008460088C72801DD0020088094
:1027200010BD000000380140980100200C0000207E
:1027300025730D0A0000000008000020D0000020D2
:1027400021B1828942F40052828104E082894DF6EF
:10275000FF731A408281704770B50246002400233F
:102760000025002040F66A16B14200D100BFC1F337
:10277000421501F01F03012606FA03F3012D02D1D1
:102780009689334006E0022D02D1168A334001E0DB
:10279000968A33400C12012606FA04F41688344057
:1027A00013B10CB1012000E0002070BDF0B503466C
:1027B000002400260025002040F66A17B94200D107
:1027C00000BF1846C1F3421401F01F06012707FAA3
:1027D00006F5012C01D10C3004E0022C01D110309F
:1027E00000E014301AB107682F43076002E0076861
:1027F000AF430760F0BD00002DE9F04786B0054605
:102800000E460024A24600BFA1460027B08900B1B1
:1028100000BF2F462C8A4CF6FF700440F08804431A
:102820002C82AC894EF6F3100440B08831890843FD
:10283000718908430443AC81AC8A4FF6FF400440E1
:10284000B0890443AC8201A8FFF762FA1F488742AF
:1028500002D1DDF810A001E0DDF80CA0A88900F499
:10286000004040B10AEBCA0000EB0A103168490091
:10287000B0FBF1F807E00AEBCA0000EB0A10316880
:102880008900B0FBF1F86420B8FBF0F004012009E6
:10289000642101FB1089A88900F4004040B1322076
:1028A00000EBC900B0FBF1F000F00700044308E0C2
:1028B000322000EB09106421B0FBF1F000F00F00B2
:1028C00004432C8106B0BDE8F087000000380140C9
:1028D00001468888C0F30800704700000246084897
:1028E00000780A5406480078401C054B1870232ACB
:1028F00003D100201870012070470020FCE7000081
:10290000140000200FB4054B10B503A9044A029827
:1029100000F05CF910BC5DF814FB0000A53800085D
:10292000040000200FB4084B10B504A902AA0398B4
:1029300000F04CF9044602A9002000F0DEFC20461D
:1029400010BC5DF814FB0000FB320008490050EA9F
:10295000C12018BF04204A0D18BF40F0010040F20A
:10296000FF72B2EB515F08BF40F00200012808BFC0
:10297000052070472DE9F0414F1E00EBC7010446CA
:10298000D1E9000115461E4637F006020DD02A4651
:102990003346FDF74FFD7F1E04EBC703D3E9002349
:1029A000FDF7A1FC37F00602F1D1022F25D0042F4C
:1029B00013D0062F18BFBDE8F0812A463346FDF735
:1029C00039FDD4E90A23FDF78EFC2A463346FDF78C
:1029D00031FDD4E90823FDF786FC2A463346FDF78E
:1029E00029FDD4E90623FDF77EFC2A463346FDF790
:1029F00021FDD4E90423FDF776FC2A463346FDF792
:102A000019FDD4E90223FDF76EFC2A463346FDF793
:102A100011FDD4E90023BDE8F041FDF764BC0122BB
:102A2000FEF71ABAFDF75FBC024A00201107FEF755
:102A300013BA000001FDFFFF02E008C8121F08C121
:102A4000002AFAD170477047002001E001C1121F2F
:102A5000002AFBD1704700002DE9FF5FDDE902206D
:102A6000010DDDF838B0024318D044F61050A1F241
:102A7000FF3141430D140F98012820D0A5EB0B0026
:102A8000401C5FEA000A4FF00004474EDFF81C913B
:102A9000A046504616D5CAF1000728E00F98012439
:102AA00043A2012808D0002100980F9BC0E9002113
:102AB000C0E90243BDE8FF9F6FEA0B01F4E7CBF1E9
:102AC0000000DEE7074612E0F80707D0224633464B
:102AD00040464946FDF7AEFC8046894622463346CD
:102AE00010461946FDF7A6FC04460E467F10002F3F
:102AF000EAD1DDE90201BAF1000F42464B4602DAA3
:102B0000FDF798FC01E0FDF707FD04460E460022A4
:102B1000284BFDF7EDFD03D84FF0FF30014607E0ED
:102B20000022254B20463146FDF7DDFBFDF778FFFF
:102B3000102409E0002C0ADB0A220023FDF72CFEFA
:102B4000019B30321A55641E50EA0102F2D1641C16
:102B5000019AC4F1110314440F9A012A03D00122EF
:102B600008430DD10AE0084304D000204FF0110BB8
:102B70000F9080E7A3EB0B056D1E0DE05B4504DDB8
:102B80004FF0000205F1010504E003DA4FF0000206
:102B9000A5F10105002AECD000980F99C0E9023197
:102BA000C0E9004586E70000000024400000F03F37
:102BB000300000000000F0430000E03F30380A28F9
:102BC00001D2012070470020704700002DE9FF4F1F
:102BD00095B09B468946064600250FE2252877D109
:102BE00000242746F84A0121059400E0044316F822
:102BF000013F203B01FA03F01042F7D130782A2838
:102C000011D06FF02F033078A0F13002092A16D8C6
:102C1000059A44F0020402EB820203EB42021044E4
:102C2000761C0590EFE759F8042B0592002A03DA89
:102C3000504244F40054059044F00204761C30786D
:102C40002E2816D116F8010F44F004042A280DD0BE
:102C50006FF02F023078A0F13003092B09D807EB71
:102C6000870302EB4303C718761CF3E759F8047B8C
:102C7000761C30786C280FD006DC4C2817D06828DA
:102C80000DD06A2814D104E0742810D07A280FD10E
:102C90000DE044F400140AE044F4801401E044F42C
:102CA00040147278824202D104F58014761C761C9E
:102CB000307866280BD013DC582877D009DC002840
:102CC00075D04528F6D04628F4D047281AD19DE182
:102CD00018E0632835D0642879D0652812D195E1B1
:102CE000702873D008DC6728F1D069286FD06E286F
:102CF0000DD06F2806D1B5E073282CD0752875D07B
:102D0000782874D05A46179990476D1C75E1C4F322
:102D10000250022809D003280DD0D9F80010042849
:102D20000DD00D6009F1040967E1D9F80010EA1728
:102D3000C1E90052F6E7D9F800100D80F2E70D70F6
:102D4000F0E719F8041B8DF8001000208DF8010041
:102D5000EA46012003E059F804AB4FF0FF30610769
:102D60004FF0000102D40DE008F101018846B9429C
:102D70000FDA8045F8DB1AF808100029F4D108E0D2
:102D800008F1010188468142FADB1AF8081000298F
:102D9000F6D105985B46A0EB080721463846179AFE
:102DA00000F094FA284400EB080507E04DE029E123
:102DB0000DE01AF8010B5A4617999047B8F101082F
:102DC000F7D25B4621463846179A13E142E00A22C1
:102DD0000092C4F302524FF0000A022A08D059F8B8
:102DE00004CB032A4FEAEC710AD00DE029E02AE077
:102DF00009F1070121F00702F2E802C1914609E05A
:102E00000FFA8CFC4FEAEC71042A03D14FFA8CFCC8
:102E10004FEAEC71002907DA0A460021DCF1000CC8
:102E200061EB02012D2202E0220504D52B228DF850
:102E30000420012203E0E20701D02022F7E79046B8
:102E400059E00A2102E010220DE010214FF0000AA3
:102E500000910BE010224FF0000A44F00404082710
:102E6000009203E008224FF0000A0092C4F30252DD
:102E7000022A05D059F804CB0021032A08D009E022
:102E800009F1070121F00702F2E802C1914605E0CD
:102E90001FFA8CFC042A01D10CF0FF0C4FF0000843
:102EA000220728D5702806D0009B83F0100353EA30
:102EB0000A0305D00EE040228DF80420012208E02C
:102EC0005CEA010206D030228DF804208DF805005E
:102ED00002229046009B83F0080353EA0A030AD1BA
:102EE0005CEA010201D1620705D530228DF8042089
:102EF0004FF001087F1E582804D034A003900EA87C
:102F000002900DE036A0F9E753466046009AFDF7BF
:102F100043FC84460398825C0298401E0290027033
:102F20005CEA0100F0D1029806A9081A00F1200A13
:102F3000600702D524F4803400E00127574502DD04
:102F4000A7EB0A0000E0002000EB0A0100900598C2
:102F50004144401A0590E00306D45B462146179A87
:102F6000059800F0B3F90544002706E001A85A4689
:102F7000C05D179990476D1C7F1C4745F6DBE00349
:102F80000CD55B462146179A059800F09FF9054439
:102F900004E030205A46179990476D1C0099481E4E
:102FA00000900029F5DC08E0029802995A46007862
:102FB000491C0291179990476D1CBAF10001AAF1C2
:102FC000010AF1DC65E100000928010030313233EB
:102FD0003435363738396162636465660000000055
:102FE000303132333435363738394142434445463F
:102FF0000000000000F058F90544761C30780028E5
:103000007FF4ECAD19B02846BDE8F08F620700D41C
:10301000062709F1070222F0070CFCE80223E1462B
:1030200003F000485FEA080C02D00FF2702C0DE0AC
:103030005FEA045C02D50FF2682C07E05FEAC47C0B
:1030400002D00FF2602C01E0AFF2700C4FF0FF38AD
:1030500023F00043CDF850C065280CD006DC45288D
:1030600009D046281DD047283DD13DE0662818D01C
:1030700067287ED138E00021112F01DB112000E00C
:10308000781CCDE9000106A90EA8FFF7E5FCDDE9F3
:103090000F010E9A03910021009207F1010A049199
:1030A0004DE04FF000400097CDE9011006A90EA8B1
:1030B000FFF7D2FCDDE90F0203920E9B119900226B
:1030C000DDF80CA00093049211B9791C00EB010A01
:1030D000B7EB0A0004D4C0F1FF3007F1010A0490F5
:1030E000AAEB0700019044E0012F00DA012700213C
:1030F000112F01DD112000E03846CDE9000106A9BD
:103100000EA8FFF7A9FCDDE90F010E9A039100213B
:1031100004910092BA4621070CD40399514500DA74
:103120008A46BAF1010F05DD009AAAF10101515C4E
:10313000302908D0B84202DA10F1040F06DA012172
:10314000CDE9011015E0AAF10101E9E7002805DC4D
:10315000049901440491AAEB000102E0411C51458D
:1031600000DD8A460499401A401C01904FF000404F
:103170000290200704D40198504501DBCDF804806B
:1031800000208DF84F0002980DF14F07B0F1004F6D
:1031900025D02B200E9002984FF0020800280CDA60
:1031A000404202902D200E9007E00A210298FDF780
:1031B000DDFA3031029007F8011DB8F10001A8F1E5
:1031C0000108F2DC02980028EFD1791E0E980870F1
:1031D000307800F0200040F0450007F8020D12A8FA
:1031E000C01B00F107081498007800B1012000EB23
:1031F0000A01019801EBE07105984144401A401E14
:103200000590E00306D45B462146179A059800F026
:103210005DF805441498007818B15A4617999047FC
:103220006D1CE00324D55B462146179A059800F0F3
:103230004DF805441CE00498002807DBDDE9030194
:10324000884203DD0098405C179901E0179930200F
:103250005A469047049805F10105401C04900198D6
:10326000401E019004D12E205A46179990476D1C9C
:10327000BAF10001AAF1010ADDDC05E017F8010B43
:103280005A46179990476D1CB8F10001A8F1010842
:10329000F4DC5B462146179A0598ABE62D0000004A
:1032A0002B000000200000002DE9F041044600251D
:1032B0001E461746880404D405E039462020B0474E
:1032C0006D1C641EF9D52846BDE8F0812DE9F0415A
:1032D000044600251E469046C80301D5302700E06D
:1032E0002027880404D505E041463846B0476D1CC8
:1032F000641EF9D52846BDE8F0810A68531C0B60AE
:103300001070704770B5E4B0002407E000F0D8FA00
:103310004DF824000A2000F037FA641C642CF5DB19
:1033200000201D490860002408E05DF824101A48B8
:103330000068FCF710FF18490860641C642CF4DB7B
:10334000164915480068FCF790FF134908600020F3
:1033500013490860002413E05DF824000E49096851
:10336000FCF74BFF054629462846FCF74CFF06466E
:103370000B4801683046FCF7EEFE09490860641C02
:10338000642CE9DB054906480068FCF76EFF044938
:10339000086064B070BD0000340000200000C84226
:1033A000380000202DE9F84F04460D4621F000407A
:1033B00000917349814211DC7249884201DC06D1D7
:1033C0002CB120462946BDE8F84FFFF728BB6E48D0
:1033D000002DCCBF6D496E49BDE8F88F6D49814223
:1033E00011DD6D498142D8BF4FF0FF366DDD2046BB
:1033F0002946FFF7ABFA042808BFFFF715FB204664
:103400002946BDE8F88F6549654F25F000458142A2
:1034100033DD6449814219DD002632464FF0804396
:1034200020462946FCF75FFF80468A460122204657
:103430002946FDF711FD00223B46FCF7F5FF424609
:103440005346FDF769F804460D463EE0012600228A
:10345000BA463B4620462946FCF745FF80460F46C4
:103460000022534620462946FCF7DEFF42463B46F3
:10347000FDF752F804460D4627E04B4981421BDD1B
:10348000DFF828A102260022534620462946FCF7F1
:10349000D1FF00223B46FCF726FF80460F46002264
:1034A000534620462946FCF7BFFF42463B46FDF700
:1034B00033F804460D4608E0032622462B4600203A
:1034C0003B49FDF729F804460D4622462B46104697
:1034D0001946FCF7AFFF8B46824602460B46FCF7C7
:1034E000A9FF07460246334888460B460621784422
:1034F000FFF740FA52465B46FCF79CFF82462E4897
:103500008B463A46434605217844FFF733FA3A465C
:103510004346FCF78FFF02460B46002E50465946A5
:103520000CDAFCF7E0FE22462B46FCF783FF01B0E5
:1035300022462B46BDE8F04FFCF779BFFCF7D3FEDF
:1035400022462B46FCF776FF1C4A7A4402EBC60360
:10355000D3E90023FCF768FF22462B46FCF764FF03
:10356000174A7A4402EBC603D3E90023FCF75FFF56
:10357000009A002AB8BF81F00041BDE8F88F000032
:10358000000010440000F07F182D4454FB21F93F47
:10359000FB21F9BF0000DC3F0000203E0000F33FAC
:1035A0000000F03F0000E63F008003400000F83FCD
:1035B0000000F0BF3E1B0000FC1A00009A1A000039
:1035C000621A00002DE9F04D9446CCF1000423F07E
:1035D00000464CEA0404524F46EAD4749A468846A0
:1035E00021F00042BC4206D8454240EA050442EAC6
:1035F000D474BC4204D9BDE8F04D6246FFF712BA5C
:10360000AAF14055A5F17F6555EA0C040BD00224C0
:1036100004EAAA74434DDFF810E144EAD87452EA90
:10362000000B04D00CE0BDE8F04DFFF7BBBE002C52
:1036300014BF012CBDE8F08D022C30D0032C32D009
:1036400056EA0C0B0AD0BE4220D1BA4209D126F06C
:10365000804622F080423346114617E000291ADBEB
:1036600025E0DFF8C8B0FB44002C04BFDBE9000113
:10367000BDE8F08D012C02BFDBE9000181F00041C3
:10368000BDE8F08D022C0AD0032C0CD0BA4212D126
:10369000B8F1000F0BDA23482549BDE8F08D284624
:1036A0002449BDE8F08D28467146BDE8F08D1D48DF
:1036B0002149BDE8F08D921B12153C2AC4BF194860
:1036C0001D490EDCBAF1000FBEBF12F13C0F002005
:1036D000014606DB6246FCF71FFF21F00041FFF7C1
:1036E00061FE002C08BFBDE8F08D012C04BF81F005
:1036F0000041BDE8F08D114A114B022C07D0FCF7B8
:1037000093FE2A46BDE8F04D0A4BFCF78DBEFCF750
:103710008BFE2A46BDE8F04D064BFCF788BE000044
:103720000000F07F182D4454FB2109C0F619000059
:10373000FB21F9BFFB210940FB21F93F075C143352
:1037400026A6A13C10B56FF00400FEF79CFC0A48C9
:1037500000680A49B0FBF1F0094908700846007892
:1037600000EB4001C1EBC0104FF6FF7101EAC00051
:103770000449088010BD0000BC00002000127A003F
:1037800000000020020000200146114A12884A432E
:103790004FF0E0235A6100229A611A46126942F002
:1037A00001021A6100BF4FF0E022106900F001022F
:1037B0001AB100F48032002AF5D04FF0E0221269ED
:1037C00022F001024FF0E0231A6100229A61704753
:1037D000020000200146114A12784A434FF0E023CC
:1037E0005A6100229A611A46126942F001021A6176
:1037F00000BF4FF0E022106900F001021AB100F49E
:103800008032002AF5D04FF0E022126922F0010246
:103810004FF0E0231A6100229A61704700000020F7
:103820002DE9F04114461D4606460F46FDF710F9F6
:1038300000F07040B0F1005F0FD0201C18BF0120D5
:10384000284320F00040C0F17F6000F1E040C00F4D
:1038500002BF20462946BDE8F08130463946BDE822
:10386000F0812DE9F04114461D4606460F46FDF74E
:10387000EFF800F07040B0F1004F0FD0201C18BFDF
:103880000120284320F00040C0F17F6000F1E040BB
:10389000C00F02BF20462946BDE8F08130463946B8
:1038A000BDE8F08100BF054A128802F04002002AFC
:1038B000F9D0C2B2014B1B1D1A807047003801407D
:1038C0002DE9F05F124A13491348FDF774FC1248C2
:1038D000B0F90000FCF798FE06460F460C48B0F918
:1038E0000000FCF791FE804632463B46FFF76AFE39
:1038F00004464FF00052094BFCF79CFD8246FCF752
:103900000FFF0749086008460068BDE8F09F000007
:103910001C0000201A00002018000020DCA54C40EC
:103920002400002010B5094A09490A48FDF76BFC3C
:103930000748B0F90000FCF75EFE04460649FCF7B4
:1039400094FC064908600846006810BD220000206B
:10395000200000201E0000206F1203432C000020D6
:1039600070B5E4B0002407E0FFF7DCFF4DF8240059
:103970000A20FFF709FF641C642CF5DB00201D49B9
:103980000860002408E05DF824101A480068FCF77D
:10399000E2FB18490860641C642CF4DB16491548E6
:1039A0000068FCF762FC13490860002013490860B6
:1039B000002413E05DF824000E490968FCF71DFCA3
:1039C000054629462846FCF71EFC06460B480168BA
:1039D0003046FCF7C0FB09490860641C642CE9DB35
:1039E000054906480068FCF740FC0449086064B0DB
:1039F00070BD00003C0000200000C84240000020D4
:103A000010B5FFF77FFCFFF7ABFF00200849086007
:103A10000848006848604FF07E5007490860002061
:103A200048608860054801680348C16010BD000017
:103A3000440000203C000020CC0100204000002079
:103A40001CB5FFF77FFE4FF4165000F047F9FDF765
:103A5000C1FE0020FDF786FEFDF744FDFFF7D0FF15
:103A60008F2140F2E730FEF753FB41F61F4118204B
:103A7000FEF7C8FB64E0334933480068FCF76BFB92
:103A800004460120082102232246CDE9001000212E
:103A90000846FDF731FB012008210223CDE9001083
:103AA0002A48002102682A20FDF726FB28480068E2
:103AB000FCF7A1FD04460120082100232246CDE9A0
:103AC000001014211846FDF717FB22480068FCF788
:103AD00092FD04460120082100232246CDE9001072
:103AE00014212A20FDF708FB012008210346CDE917
:103AF00000101948282102680020FDF7FDFA012076
:103B000008210346CDE900101448282102681E2030
:103B1000FDF7F2FA012008210346CDE90010104814
:103B2000282102683C20FDF7E7FA01200821022342
:103B3000CDE900100B48282102685A20FDF7DCFA75
:103B400099E70000000040402800002030000020DD
:103B500090000020940000207400002078000020D5
:103B60007C000020800000202DE9F04707468846B1
:103B700091469A46089E002413E000250EE004FBBF
:103B8000065258F8221004FB065257F82200FCF7A0
:103B9000E2FA04FB065149F821006D1CB542EEDB48
:103BA000641C5445E9DBBDE8F0872DE9F84F8146F8
:103BB0008A4617469B460C9E002428E0002523E0F9
:103BC000002004FB065147F82100804618E008FB5E
:103BD00006525AF822100A9A04FB028259F822006F
:103BE000FCF711FB009004FB065057F820100098DA
:103BF000FCF7B1FA04FB065147F8210008F101086F
:103C00000A988045E3DB6D1CB542D9DB641C5C453A
:103C1000D4DBBDE8F88F2DE9F0470746884691468A
:103C20009A46089E002410E000250BE004FB065095
:103C300057F820104046FCF7E6FA04FB065149F815
:103C400021006D1CB542F1DB641C5445ECDBBDE882
:103C5000F0872DE9F0470746884691469A46089E28
:103C6000002413E000250EE004FB065258F8221051
:103C700004FB065257F82200FCF7BFFA04FB06517A
:103C800049F821006D1CB542EEDB641C5445E9DBAC
:103C9000BDE8F087F0B504460D4600200DE0002198
:103CA00008E000FB031654F8266001FB020745F804
:103CB0002760491C9942F4DB401C9042EFDBF0BDC9
:103CC00000B583B00A460021CDE9001101466846DF
:103CD000FCF7DFFDDDE9000103B000BD10B586B0E3
:103CE0000446012144F20400FEF702F84FF400708C
:103CF000ADF8140003208DF8160018208DF8170079
:103D000005A91E48FDF7E0F84FF48060ADF81400F7
:103D100004208DF8170005A91848FDF7D5F84FF4D1
:103D2000A060FDF715FD25208DF8000000208DF81E
:103D300001008DF8020001208DF803006846FDF7B0
:103D4000CFFC01940020ADF80800ADF80A00ADF8F2
:103D50000C00ADF810000C20ADF80E0001A90848C9
:103D6000FEF74AFD012240F225510548FEF71EFDEF
:103D700001210348FEF7E4FC06B010BD0008014035
:103D8000003801402DE9F041B4B0FFF799FD064637
:103D9000FFF7C8FD054600203290339030903190F7
:103DA0000223012230A98148FFF774FF012002217C
:103DB00000910B4632AACDE9011030A97C48FFF7EB
:103DC000F4FE00202F9001200221009103462FAA2B
:103DD000CDE9011032A97548FFF7E7FE75492F9824
:103DE0000968FCF7B8F9804641464FF07E50FCF771
:103DF0003CFA044600202D902E90012002232DAA8B
:103E00002146009032A8FFF706FF00202C900120E9
:103E10000221009103462CAACDE9011066496348AE
:103E2000FFF7C3FE30462C99FCF7E7F90746002060
:103E30002A902B90012002232AAA394600902DA80F
:103E4000FFF7E9FE012002235C4A2AA900905A48A4
:103E5000FFF78AFE00202690279028902990584B43
:103E60000FCBCDE92423CDE92201022001210091CD
:103E7000034626AACDE901104C492DA8FFF795FE6F
:103E800000201E901F9020902190022003461EAA21
:103E900026A9009022A8FFF7DCFE022000900190E6
:103EA0000346484A424902901EA8FFF77EFE0020C2
:103EB0001C901D901A901B900120022100910B462E
:103EC0001CAACDE901103D493F48FFF76EFE0120D5
:103ED00002231AAA294600903C48FFF79CFE0120C5
:103EE0000223354A1AA900901CA8FFF73DFE0020C6
:103EF0001690179018901990129013901490159096
:103F00000E900F901090119002231A460EA92E4881
:103F1000FFF7C0FE022000900190034616AA29492F
:103F200002902948FFF741FE0220009001900346CD
:103F300012AA0EA9029016A8FFF737FE00200890DB
:103F400009900123022208A92048FFF7A3FE0220BE
:103F50000121009103460AAACDE9011008A91B48D6
:103F6000FFF723FE002004900590069007900220A2
:103F7000034604AA0090164801680AA8FFF74BFE02
:103F8000022003460A4A04A9009012A8FFF7ECFD9C
:103F90000A4800680F490860084841682846FCF74D
:103FA0002CF90D49086034B0BDE8F0816C000020A8
:103FB000CC01002038000020440000204C000020EC
:103FC000E43F0008DC0100205400002064000020D1
:103FD0004000002028000020300000200000C843DE
:103FE0000AD7233B0000803F0000000000000000D3
:103FF0000000803F000000000000000010101010C2
:1040000000100000282828000000000028287C2834
:104010007C282800103C503814781000004C2C10DC
:1040200008606000304850205448340030102000B0
:1040300000000000081020202010080020100808B0
:104040000810200000105438541000000010107C9C
:104050001010000000000000001808100000000010
:104060007C00000000000000003030000004081058
:104070002040000038444C54644438001030101084
:10408000101038003844040810207C007C08100808
:1040900004443800081828487C0808007C4078044C
:1040A0000444380018204078444438007C04081048
:1040B0002020200038444438444438003844443CEC
:1040C0000408300000303000303000000030300094
:1040D00030102000081020402010080000007C0054
:1040E0007C00000020100804081020003844040858
:1040F00010001000384404345C4438001028444454
:104100007C44440078444478444478003844404037
:104110004044380070484444444870007C40407833
:1041200040407C007C404078404040003844405C47
:1041300044443C004444447C44444400381010103F
:10414000101038001C080808084830004448506027
:10415000504844004040404040407C00446C54542F
:1041600044444400444464544C444400384444446B
:104170004444380078444478404040003844444443
:104180005448340078444478504844003C40403817
:10419000040478007C1010101010100044444444B3
:1041A00044443800444444444428100044444454A3
:1041B00054542800444428102844440044444428CB
:1041C000101010007C04081020407C0038202020B3
:1041D000202038000040201008040000380808089B
:1041E000080838001028440000000000000000000B
:1041F00000007C00201008000000000000003804CF
:104200003C443C004040586444447800000038403E
:10421000404438000404344C44443C00000038441A
:104220007C403800382420702020200000003C44CE
:10423000443C04384040586444444400100030106A
:10424000101038000800180808084830404048504E
:1042500060504800301010101010380000006854F2
:10426000544444000000586444444400000038446E
:104270004444380000005864645840400000344C06
:104280004C340404000058644040400000003C40AE
:1042900038047800202070202024180000004444B6
:1042A000444C3400000044444428100000004444BE
:1042B00054542800000044281028440000004444BE
:1042C000443C043800007C0810207C001020204072
:1042D00020201000001010101010100020101008E6
:1042E0001010200000000020540800000000000012
:1042F00000000000000000000000000000000018A6
:104300001818181818180000181800000012362481
:104310004800000000000000000000000000002431
:104320002424FE484848FE48484800000000103851
:10433000545450301C1414545438101000000044CD
:10434000A4A8A8A8541A2A2A2A4400000000003071
:10435000484848506EA49488897600000060602028
:10436000C00000000000000000000000000204087F
:10437000081010101010100808040200004020104F
:10438000100808080808081010204000000000006D
:104390001010D63838D610100000000000000000C1
:1043A00010101010FE10101010000000000000008F
:1043B0000000000000000000606020C0000000005D
:1043C000000000007F00000000000000000000006E
:1043D000000000000000000060600000000001021A
:1043E00002040408081010202040400000000018BB
:1043F000244242424242424224180000000000107F
:104400007010101010101010107C00000000003C04
:104410004242420404081020427E00000000003C9A
:104420004242041804020242443800000000000422
:104430000C14242444447E04041E00000000007E6A
:104440004040405864020242443800000000001C12
:104450002440405864424242241800000000007E7C
:104460004244080810101010101000000000003C1A
:104470004242422418244242423C000000000018FC
:1044800024424242261A02022438000000000000A2
:1044900000001818000000001818000000000000BC
:1044A0000000181800000018180830000000000272
:1044B0000408102040201008040200000000000042
:1044C0000000FE000000FE000000000000000040B0
:1044D0002010080402040810204000000000003CE6
:1044E0004242620204080800181800000000003868
:1044F000445AAAAAAAAAB4424438000000000010F4
:1045000010182828243C444242E70000000000F82C
:10451000444444784442424244F800000000003ED3
:10452000424280808080804244380000000000F8D1
:10453000444242424242424244F80000000000FE2F
:10454000424848784848404242FE0000000000FED1
:10455000424848784848404040E000000000003CA5
:1045600044448080808E844444380000000000E78A
:10457000424242427E42424242E700000000007C4A
:104580001010101010101010107C00000000003EE1
:104590000808080808080808080888F0000000EE65
:1045A000444850705048484444EE0000000000E089
:1045B000404040404040404042FE0000000000EECD
:1045C0006C6C6C6C5454545454D60000000000C7FA
:1045D000626252524A4A4A4646E2000000000038EF
:1045E000448282828282828244380000000000FC81
:1045F000424242427C40404040E00000000000381F
:10460000448282828282B2CA4C380600000000F8DE
:10461000444444784848444442E300000000003EDB
:104620004242402018040242427C0000000000FE8A
:10463000921010101010101010380000000000E749
:104640004242424242424242423C0000000000E7F5
:10465000424244242428281810100000000000D6EC
:1046600092929292AAAA6C4444440000000000E78F
:10467000422424181818242442E70000000000EE09
:104680004444282810101010103800000000007E4C
:10469000840408081020204242FC0000001E101074
:1046A000101010101010101010101E0000004040CC
:1046B00020201010080404020202010100780808FA
:1046C00008080808080808080808780000081422E4
:1046D00000000000000000000000000000000000DA
:1046E0000000000000000000000000FF006010005B
:1046F00000000000000000000000000000000000BA
:104700000000003C421E2242423F0000000000C068
:10471000404040586442424264580000000000009B
:104720000000001C22404040221C00000000000647
:104730000202021E22424242261B0000000000002C
:104740000000003C427E4040423C00000000000F60
:104750001110107E10101010107C000000000000DE
:104760000000003E444438403C42423C000000C04F
:104770004040405C6242424242E70000000000309C
:104780003000007010101010107C00000000000CB1
:104790000C00001C0404040404044478000000C05D
:1047A0004040404E4850684844EE00000000007011
:1047B0001010101010101010107C000000000000ED
:1047C000000000F64949494949ED00000000000099
:1047D000000000DC6242424242E7000000000000AC
:1047E0000000003C42424242423C00000000000007
:1047F000000000D864424242645840E000000000DB
:104800000000001E22424242261A02070000000059
:10481000000000EE3220202020F800000000000000
:104820000000003E42403C02427C000000000000CC
:104830000010107C10101010100C00000000000080
:10484000000000C642424242463B00000000000019
:10485000000000E74224242810100000000000009F
:10486000000000D79292AAAA444400000000000071
:104870000000006E241818182476000000000000C4
:10488000000000E742242428181010E00000000077
:104890000000007E44081010227E00000003040483
:1048A00004040408040404040404030008080808B9
:1048B0000808080808080808080808080060101018
:1048C00010101008101010101010600000000000F0
:1048D000000020520C00000000000000C8AB0100E6
:1048E000010002800440082010102FE8C1060100DA
:1048F00001001FF00100010001007FFC0000B6AFC5
:10490000004000407C40004001FC0044FE44204444
:104910002044208448844484FD0445040228041073
:10492000B5E70100010001003FF821082108210836
:104930003FF82108210821083FF8210A010201025D
:1049400000FED7D300007FF8001000200040018057
:104950000100FFFE01000100010001000100010053
:1049600005000200BCBC10201020102013FEFC200B
:104970001020102015FC18843088D04810501020CA
:10498000105051882606CAF50100012001100110BF
:104990007FFC0380054005400920111021084104D7
:1049A0008102010001000100CFB500F83F000400C2
:1049B000082010403F800100061018087FFC010409
:1049C00009201110210845040200CDB31040102029
:1049D000202023FE4840F888110423FE4092F890DE
:1049E000409000901912E112420E0400C9E8000044
:1049F00021F0111011100110020EF40013F811082B
:104A00001110109014A0184010A003180C06D6C363
:104A10007FFC44447FFC01007FFC01001FF010106C
:104A20001FF010101FF010101FF01010FFFE0000FC
:104A3000D2F4020001003FF8000008200440FFFE0D
:104A400000001FF0101010101FF0101010101FF0B9
:104A50001010C1BF00001FF010101FF01010FFFE5B
:104A600000001FF011101FF011101FF001001FF0C7
:104A700001007FFCD1D5100008FE7F102220147C9D
:104A80007F44445448545254445448545154422846
:104A9000442488423082C9AB080008001FE020206F
:104AA0004040BFF82108210821083FF820002002DB
:104AB000200220021FFE0000CDF800007FFC400411
:104AC0004004421452944A54442444244A544A54BC
:104AD00052946104400440144008C2E710801080E2
:104AE00020F821084B10FCA0104020A04118FA0625
:104AF00045F801081908E10841F80108C8AB0000B1
:104B00000000000000380000300000680000440091
:104B100000C2000181000300C00600700FFFFE10FC
:104B2000180860180000180000180000186003FF43
:104B3000800018000018000018000018081FFFFC73
:104B4000000000000000B6AF0000000000000001FF
:104B5000800001000061003F810000010000010CA5
:104B60000007FC00310C3FC10C06010C04010C0CC9
:104B700081080843081062081022082FF40838142E
:104B8000080008080011180020F80040300000005C
:104B9000B5E7000000000000001800001000001041
:104BA000000010000FFFF00810200810200810204F
:104BB0000810200FFFE0081020081020081020081F
:104BC00010200FFFE008100000100800100800106F
:104BD0000400180C000FF8000000D7D300000000FC
:104BE00000000000200FFFF00000600000800003C4
:104BF0000000140000180000180000180C7FFFFED1
:104C0000001800001800001800001800001800002C
:104C1000180000180000180000180000F80000300C
:104C200000000000BCBC000000040000070180067A
:104C3000010006010006010006C10C3F3FF006011D
:104C40000006010006010006FFF80708103E0830C4
:104C50002604200604600602400602C00601800603
:104C60000380060C601E103E0CE00C000000CAF52C
:104C7000000000000000001C000019800018E00087
:104C8000186000182800181C3FFFE0003C00007C62
:104C900000005A0000DA000099000119800318C0D2
:104CA00006186004183808181E301808401800004C
:104CB0001800001800000000C8AB00000000000051
:104CC00000000003000000038000000780000006D1
:104CD0008000000C4000001C200000183000003054
:104CE000180000600C0000C00700018003C0030032
:104CF00002F807FFFF7C080180903001800040012E
:104D0000800000018000000181000001838001FF1C
:104D1000FFC0000180000001800000018000000150
:104D200080000001800000018010000180381FFF1A
:104D3000FFFC0000000000000000B6AF0000000013
:104D4000000000000000080000000E0000000C0041
:104D5000000C0C003FFE0C0010000C0000000C00CA
:104D600000000C180000FFFC00020C1800070C18D3
:104D70003FFF8C1801C00C1801C00C1801800818E6
:104D8000030008180210181806081818040C101848
:104D900008061018100630102FFB20103E0360107C
:104DA0001002C0300000803000010C30000203E02F
:104DB000000C01E00010008000000000B5E70000DA
:104DC000000000000000000300000003800000035A
:104DD000000000030000000300000003000007FFC4
:104DE000FFC0060300C0060300C0060300C00603A0
:104DF00000C0060300C0060300C007FFFFC0060393
:104E000000C0060300C0060300C0060300C006037E
:104E100000C007FFFFC00603008006030000000378
:104E2000001000030008000300080003001800033E
:104E3000801C0001FFF80000000000000000D7D334
:104E4000000000000000000000000000000000C0A2
:104E500003FFFFE0000001E0000003000000060087
:104E600000001800000030000001C0000001C00078
:104E70000001800000018010000180383FFFFFFC2E
:104E8000000180000001800000018000000180001E
:104E9000000180000001800000018000000180000E
:104EA00000018000000180000001800000018000FE
:104EB000003F80000007000000020000000000002A
:104EC000BCBC00000000000000000180080001C020
:104ED0000E0001800C0001800C0001800C0001809C
:104EE0000C0001980C183FFFFFFC01800C000180B2
:104EF0000C0001800C0001800C00018C0C2001B31F
:104F0000FFF001C080600F8080603D8040C0318034
:104F100040C0018021800180218001803300018018
:104F20001E0001800C0001801E00018037000180FE
:104F3000E3C01F8380F8078E007C02300000000071
:104F40000000CAF5000000000000000000010000A1
:104F50000001C00000018C00000187000001838077
:104F60000001818000018080000180303FFFFFF858
:104F70001003C0000007C0000007A000000DA00043
:104F8000000D9000001990000019980000318C006D
:104F90000061860000C1870000818380018181C09B
:104FA000030180F00401807C08018038100180102A
:104FB000600180000001800000018000000100000D
:104FC00000000000000000004FBB610567ACDD3F42
:104FD000182D4454FB21E93F9BF681D20B73EF3F20
:104FE000182D4454FB21F93FE2652F227F2B7A3C98
:104FF000075C143326A6813CBDCBF07A8807703C51
:10500000075C143326A6913CC4EB98999999C9BFC3
:10501000711623FEC671BCBF6D9A74AFF2B0B3BFF8
:105020009AFDDE522DDEADBF2F6C6A2C44B4A2BFB8
:105030000D5555555555D53FFF8300922449C23F24
:105040006E204CC5CD45B73F513DD0A0660DB13F58
:10505000EB0D76244B7BA93F11DA22E33AAD903F6A
:105060000000000000000000DDDDDDDDDCBBBBDD9D
:10507000DDDDDDDDDDDDDDDD9888888888888888F8
:105080007777777777888888855555566666666618
:1050900066666666666888888333333222222222F7
:1050A000222222222228888DC850000800000020D9
:1050B000D0000000382A000898510008D0000020D5
:1050C00020090000482A000800000000000000003D
:1050D00000000000000000000000000000000000D0
:1050E00000000000000000000000000000000000C0
:1050F00000000000000000000000000000000000B0
:10510000000000000000000000000000000000009F
:105110000000000000000000000000000000803FD0
:105120000AD723BB000000000000803F0AD7233BC2
:10513000000000000000803F000000000000344339
:105140000000003F6666664000004040000000002E
:10515000000000000000000000000000000000004F
:10516000000000000000000000000000000000003F
:1051700000000000010203040102030406070809FD
:105180000204060800A24A0400000000000000001B
:085190000102030406070809EF
:04000005080000ED02
:00000001FF
